:100000006F107013130000001300000013000000B5
:100010001300000013000000130000001300000094
:100020001300000013000000130000001300000084
:08003000130000007300100032
:100038000000000000000000582200005C220000C0
:10004800000000007C180000000000000000000014
:100058007E1800008018000000000000000000006A
:100068008218000000000000841800000000000052
:1000780086180000881800008A1800008C180000F4
:100088008E180000901800009218000094180000C4
:1000980096180000981800009A1800009C18000094
:1000A8009E180000A0180000A2180000A418000064
:1000B800A6180000A81800000C2A0000AC180000C0
:1000C800D2360000B0180000B2180000B4180000C2
:1000D800B618000048330000BA180000BC18000029
:1000E800BE180000C0180000E2330000C418000069
:1000F800C6180000C8180000CA180000CC18000074
:10010800CE180000D0180000D2180000D418000043
:10011800D6180000D8180000DA180000DC18000013
:10012800DE180000E0180000E2180000E4180000E3
:10013800E6180000E8180000EA180000EC180000B3
:10014800EE180000F0180000F2180000F418000083
:10015800F6180000F8180000FA180000FC18000053
:10016800FE18000000190000021900000419000020
:1001780006190000081900000A190000C62200002C
:100188000E190000101900001219000014190000BF
:1001980016190000181900001A1900001C1900008F
:1001A8001E1900002019000022190000241900005F
:1001B80026190000281900002A1900002C1900002F
:1001C8002E190000301900003219000034190000FF
:1001D8000000000000000000000000000000000017
:1001E8000000000000000000000000000000000007
:0801F8000000000000000000FF
:10020000397101436EC619A0397141536AC866CA73
:1002100062CC5ECE19A0397101535AD056D252D455
:100220004ED64AD826DA22DC06DE330161408282CD
:1002300041114AC026C222C406C68282B24D410183
:10024000024D924C224CB24B4101024B924A224A3F
:10025000B2494101024992442244B24041018280A4
:1002600097070020938747E19C4337177A001307CD
:100270000720B3D7E70293F7F70F2381F182130723
:10028000803EB387E7022390F1828280B7F700E0D7
:10029000D843799BD8C303C721823306A70281467E
:1002A00090CBD4CB98431367070198C39843136747
:1002B000170298C3B7F700E0DC43858BE5DF37F71B
:1002C00000E01C43F99B1CC38280B7F700E0D843D1
:1002D000799BD8C303D701823306A702814690CB0E
:1002E000D4CB98431367070198C398431367170249
:1002F00098C3B7F700E0DC43858BE5DF37F700E014
:100300001C43F99B1CC38280EFF29FF2B727014088
:10031000938707406309F500B7370140938707804B
:10032000630EF50005BF854513050020EF0030235F
:10033000814513050020EF009022EDB78545130598
:100340000040EF00D021814513050040EF0030212F
:10035000D1BF5C413707F1E01307F7EF7D8F9C4178
:10036000944DD58FD44DD58FD441A206D58FD98F3A
:100370005CC11C4537F7F1FF1307D77F7D8F9C4980
:10038000D445D58F94458606D58FD98F1CC55C552D
:10039000370710FF7D177D8FDC29FD1793F7F70FC7
:1003A000D207D98F5CD5828091C51C4593E7170091
:1003B0001CC582801C45F99B1CC5828091C51C45CB
:1003C00093E707101CC582801C4593F7F7EF1CC507
:1003D000828093F5F50F09C65C41DD8D4CC18280AA
:1003E0005C4193C5F5FFFD8D4CC1828091C51C45D4
:1003F0002167D98F1CC582801C4561777D17F98FD5
:100400001CC58280A54763FDB7040328C500138778
:1004100065FF93171700BA971D473317F700134767
:10042000F7FF33770701B396F600558F58C5145D73
:1004300093D746018D8BB307F64093F7F70F8907E3
:1004400093F7F70F13972700BA977D473317F700F5
:100450001347F7FF758FB395F5004D8F18DD828038
:1004600003280501139715002E979D47B397E700C2
:1004700093C7F7FFB3F70701B396E600D58F1CC902
:100480007DB71C5D3707D0FF7D17F98FFD15D205AD
:10049000DD8D0CDD828019C9B737014003A7878045
:1004A000B7068000558F23A4E7808280B7370140CC
:1004B00003A78780B70680FFFD16758F23A4E7800A
:1004C00082801C41FD8D99C1054582800145828055
:1004D00093C5F5FF0CC1828099C55C4137070004C4
:1004E000D98F5CC182805C41370700FC7D17F98F92
:1004F0005CC18280E98D99C1054582800145828079
:100500001C41F59B1CC11C4193E717001CC101470E
:100510005C41858B99E7C167FD176304F700050708
:10052000C5BF5C41858BE9CF984585476307F708D0
:100530001C4193F7F7F71CC1D84585476304F708BA
:100540001C4193F7F7FB1CC1984985476301F708E5
:100550001C4193F7F7FD1CC1D8498547630EF70688
:100560001C41BD9B1CC1984D8547630CF7061C417F
:10057000DD9B1CC1D84D8547630AF7061C41ED9BE6
:100580001CC1BC21FA07B8316207D98FD8214207B4
:10059000D98FD8315207D98F9A217D17D98F5CCD49
:1005A0001C41F99B1CC101475C41858BA9C7C167F0
:1005B000FD176302F7040507C5BF1C4193E7070851
:1005C0001CC19DBF1C4193E707041CC1B5BF1C4162
:1005D00093E707021CC149B71C4193E707011CC1FF
:1005E00059B71C4193E787001CC169B71C4193E7C9
:1005F00047001CC179B75C41858B89C70145828062
:1006000001458280054582803C2505473317F70068
:10061000B767004083A6076093E6160023A0D76063
:1006200003A6C7619346F7FF758E23AEC7605C25AE
:10063000B1E3B767004003A6C760758E23A6C76005
:10064000938707406E21C205035825003025B3E586
:100650000501130686040E063E960CC25221420680
:10066000035805002C2533660601938585048E0505
:10067000AE97D0C3502585476304F6043C35D9E3D3
:10068000B767004003A64760758E23A2C7601E258A
:1006900081EBB767004003A64761F18E23AAD760BC
:1006A000162585476388F60614498547638CF60648
:1006B000B767004003A70760799B23A0E7608280AB
:1006C000B767004003A6C760598E23A6C76093870B
:1006D00007400E21C205035825003025B3E505016A
:1006E000130686040E063E960CC25221420603589B
:1006F00065002C2533660601938585048E05AE972B
:10070000D0C3ADBFB767004003A64760598E23A290
:10071000C760B5BFB767004083A64761D98E23AADB
:10072000D76059B7B767004083A6C761558F23AE1E
:10073000E760BDBF9387B5019207AA979C43918B51
:100740001CA6ADE39387B5019207AA979C43D58376
:100750001CC29387B5019207AA979843098B18B6D4
:10076000D8433D8B38A6D843218338BA984738B64A
:100770009847218358A69847418358B69847618384
:1007800078A6D84778B6D847218318AAD847418396
:1007900018BADC47E1833CAA91ED5C4593E7070278
:1007A0005CC582809387B5019207AA979C438D838D
:1007B0005CC245B71C4993E707021CC9828009C681
:1007C0005C49DD8D4CC982805C4993C5F5FFFD8D88
:1007D0004CC982805C49ED8F63810710EFF25FA501
:1007E00093070004638AF50A63F7B70293870580CD
:1007F000638C070C85679387078063FBB704C16729
:100800006380F50AB70702006380F50AA167638277
:10081000F50C01450DA091476380F50663FEB70016
:10082000C1476383F506930700026383F506A1477A
:100830006388F504014539BC85476389F50289471A
:100840006396F50048458D457531F5B70145E5B727
:10085000930700206382F506930700406382F50644
:10086000930700106386F5040145F1B70845C1659B
:10087000938515104131C1B74845A145A53965BFDC
:100880004845C145853945BF08498D45A53165B7FE
:100890000849A145853145B70849C145A13961BF1E
:1008A0004841A145813941BF4841C145A13161B7A6
:1008B000084D8545813141B7084D89452539A5BF8A
:1008C000084D9145053985BF084D930500071D3139
:1008D0009DB7484191453939B9BF01458280930799
:1008E0000010638FF50863F5B70293870580D9CFB1
:1008F00085679387078063F8B704C167638CF50643
:10090000B7070200638BF506A1676386F50882804E
:10091000A147638BF50463FDB7009307000263886A
:10092000F50493070004639FF500C1471CC982804A
:1009300085476386F50291476395F500A1475CC53D
:1009400082808280828093070020638EF502930765
:1009500000406395F50091475CC182808280C16749
:10096000938717101CC58280C1475CC58280A14750
:100970001CC98280A1475CC18280C1475CC1828062
:1009800091475CC1828091475CC18280232C050025
:1009900091475CC18280232C050091475CC185BFD3
:1009A0009C4593F8F700C18B81C7DC41B3E8F800A0
:1009B0009C21B9CB03280500014719A05CC9050794
:1009C0009D4763E1E7048547B397E7009621FD8ED5
:1009D000E397D7FE13162700BD46B396C60093C60D
:1009E000F6FF33F806013396C800336806019445D4
:1009F00013068002E384C6FC13068004E391C6FC60
:100A00001CC975BF232005019A219307F00F63F0DD
:100A1000E70603284500014721A05CC981A005071E
:100A20009D4763E4E704130687008547B397C70033
:100A30009621FD8EE395D7FE13162700BD46B3968B
:100A4000C60093C6F6FF33F806013396C800336834
:100A50000601904593068002E301D6FC904593067B
:100A60008004E31ED6FA1CC95DBF232205018280E3
:100A7000FD571EA189475CC191471CC582800CC9E6
:100A800082804CC98280AA8663410504B707014071
:100A9000DC43135705013D8B13160501418263CAE0
:100AA000060237083000B378050163880807131879
:100AB000B500635E08080D483317E8001347F7FFD9
:100AC0007D8FB707000FD98FADA0B7070140DC4F6E
:100AD000C9B737083000B3780501638D08011318D2
:100AE000B500635108020D483317E8001347F7FFBC
:100AF000F98F81A041070D483317E8001347F7FF2E
:100B0000F98F05A8135755011377F73F12073317CD
:100B1000E6001347F7FFF98F29A8370700F17D1783
:100B2000F98FB708014003A848003377E80023A2F3
:100B3000E80081C955811375F53F12053315A600EC
:100B4000C98F63C20602370701405CC38280135716
:100B5000550112073317E6001347F7FF7D8FB707DC
:100B6000000FD98FF9B7370701405CCF828023A2ED
:100B7000A1828280938741829C4385EF14213C218E
:100B8000920793F7F70F37E700E036972300F74017
:100B90005C41638207141821935757008546B3962A
:100BA000E600938707048A0737E700E0BA9794C303
:100BB00082809387418298438547630FF70293872A
:100BC0004182984389476304F7069387418298439B
:100BD0008D476308F70A9387418298439147E31949
:100BE000F7FA14211C31920793F7F70F37E700E06B
:100BF00036972300F74069BF1831630DF7001421C1
:100C00003C21920793F7F70F37E700E03697230070
:100C1000F740BDBF14213C21920793E707F893F7F3
:100C2000070F37E700E036972300F74095B71C31F0
:100C300005476377F70238219387E7038A0793F71D
:100C4000F70FBA9793F7F70F1421920793E707F876
:100C500093F7070F37E700E036972300F7400DBF03
:100C600038218A0793F7F70FBA9793F7F70F1421F4
:100C7000920793F7F70F37E700E036972300F74026
:100C800001BF1C310D476363F7023821860793F7D4
:100C9000F70FBA9793F7F70F1421920793F7F70F0F
:100CA00037E700E036972300F740DDB5382193871A
:100CB000C707860793F7F70FBA9793F7F70F142133
:100CC000920793E707F893F7070F37E700E03697A7
:100CD0002300F74075BD1821935757008546B396FA
:100CE000E600938707068A0737E700E0BA9794C3C0
:100CF0008280B7160240DC4251777D17F98F5D8DF7
:100D0000C8C2828099C5371702405C4B5D8D48CBC5
:100D10008280371702405C4B1345F5FF7D8D48CB31
:100D2000828099C5371702401C4F5D8D08CF8280A5
:100D3000371702401C4F1345F5FF7D8D08CF828089
:100D400099C5371702405C4F5D8D48CF82803717B9
:100D500002405C4F1345F5FF7D8D48CF828099C5D9
:100D6000371702405C475D8D48C7828037170240C5
:100D70005C471345F5FF7D8D48C78280B717024059
:100D8000D857B70600F9FD16758FD8D7D857620522
:100D9000498FD8D78280B7170240D857B70600F8D6
:100DA000FD16758FD8D7D8576E05498FD8D7828052
:100DB000B7170240D857B70600D0FD16758FD8D7A1
:100DC000D8577205498FD8D7828009C93717024092
:100DD0005C57B7060040D58F5CD78280B7160240BB
:100DE000DC56370700C07D17F98FDCD68280B71735
:100DF0000240D857B706008093C6F6FF758FD8D744
:100E0000D8577E05498FD8D78280035805024208FB
:100E1000135808011378E8FF4208135808012310FB
:100E20000503035885014208135808011E31C20703
:100E3000C1831378C8F09206C206C182558E33680A
:100E4000C800B7360140938606C0630DD504370746
:100E500000406309E504130707406305E5043717FD
:100E6000004013070780630FE502371700401307A0
:100E700007C06309E50237370140130707406303E2
:100E8000E50237570140130707C0630DE5003757E8
:100E900001406309E50013F757FFB367B70093E715
:100EA000170029A0F59BCD8F93E71700231C0501A0
:100EB0001EB182801E31C207C183BD9BC207C183A0
:100EC0001EB1035885011E31C207C1831397450027
:100ED0009318070193D8080105671307F7CF3377F5
:100EE0000701B206C206C182D98E2206420641829D
:100EF000558E37370140130707C0630CE5043707E9
:100F000000406308E504130707406304E50437174E
:100F1000004013070780630EE502371700401307F0
:100F200007C06308E5023737014013070740630233
:100F3000E50237570140130707C0630CE500375738
:100F400001406308E50093F7F7F5CD8F93E70701BC
:100F500039A093F7F7FDB3E7170193E7070112AD47
:100F60001EB182801E31C207C18393F7F7EFC2071B
:100F7000C1831EB15E2DC207C1831A3193180701C8
:100F800093D8080113978500131807011358080117
:100F900093F7C7F09206C206C182558ED18F3737BC
:100FA0000140130707C0630FE50437070040630BD8
:100FB000E504130707406307E504371700401307EC
:100FC00007806301E50437170040130707C0630B70
:100FD000E50237370140130707406305E50237573D
:100FE0000140130707C0630FE50037570140630B4B
:100FF000E5007D771307F75F33F7E800D98D93E5B8
:10100000051039A093F5F8DFB3E5050193E5051068
:101010005EAD0EB182801A31FD77FD17F98F1EB1DA
:101020005A2D1E319398070193D808011398C500D3
:1010300042081358080185679387F7CFF98F220676
:10104000420641825D8EB206C206C182D18E37371A
:101050000140130707C0630FE504B7070040630BA7
:10106000F504938707406307F504B717004093879B
:1010700007806301F504B7170040938707C0630B2F
:10108000F502B7370140938707406305F502B7576C
:101090000140938707C0630FF500B7570140630B0A
:1010A000F500A1679387F7DFB3F7F800DD8D85675B
:1010B000CD8F09A879777D17B3F7E800B367F800FB
:1010C0000567D98F56AD1EB182801E21C207C1832C
:1010D00037370140130707C06306E50437070040B0
:1010E0006302E50413070740630EE502371700406B
:1010F000130707806308E50237170040130707C08E
:101100006302E5023737014013070740630CE5002F
:1011100037570140130707C06306E5003757014002
:101120006316E50093F7F7F8BA21D98F3717004017
:10113000630CE500130707406308E50093F7F7CF5A
:10114000C207C183FA21D98F1EA1DE215EB59E217F
:101150001EB5B7370140938707C06302F502B73762
:10116000014093870740630CF500B7570140938710
:1011700007C06306F500B75701406314F5009C25CE
:101180001EB985475EA982801E31C207C183F99BC3
:10119000C207C1831EB11E31C207C1835A21420753
:1011A0004183162DC206C18293F6C6F89221D18ED4
:1011B000F59B92255D8EBE21D18F373601401306F7
:1011C00006C06302C5023736014013060640630CB1
:1011D000C50037560140130606C06306C5003756E2
:1011E0000140631EC500DD9BB225D18FED9BD2214E
:1011F000D18F1377F7CFD225518FF225518F5AA176
:1012000016ADFA215AB91EB182801E31C207C183C0
:10121000BD9BC207C1831EB11E31C207C1835A21C3
:1012200042074183122DE5769386F6CFF18E922107
:10123000220642064182558E93F7F7FD96259206C7
:10124000C206C182DD8EBE219207C207C183D58F3F
:10125000B7360140938606C06302D502B736014017
:1012600093860640630CD500B7560140938606C0AE
:101270006306D500B75601406311D50493F7F7F71D
:10128000B6259206C206C182D58F93F7F7FBD62109
:101290009206C206C182D58FFD769386F63F3378DB
:1012A000D700D6258A06139706014183B366070146
:1012B000FA250A0742074183558F5AA112ADFA2138
:1012C0001ABD1EB182801E31C207C18393F7F7EFAA
:1012D000C207C1831EB11E31C207C1835A21420712
:1012E0004183562DC206C18293F6C6F89221D18E53
:1012F00093F7F7DF92252206420641825D8EBE21DA
:10130000A207C207C183D18F37360140130606C03A
:101310006302C5023736014013060640630CC50060
:1013200037560140130606C06306C5003756014014
:101330006312C5047D761306F67FF18FB22522066F
:1013400042064182D18F13F6F7BFDE21A207C20702
:10135000C183D18F75767D163378C700D2251206EA
:1013600013170601418333660701FA251207420766
:101370004183518F5AA156ADFA215ABD1EB18280C8
:101380001A31FD77FD17F98F1EB11A315E21C207A0
:10139000C1830358C501E5769386F6CF33F806017D
:1013A0009621A206C206C182B3E6060179767D16B1
:1013B000798E9A25320742074183598EBA21320726
:1013C00042074183518F37360140130606C063023E
:1013D000C5023736014013060640630CC500375678
:1013E0000140130606C06306C50037560140631A64
:1013F000C50071767D16F18FD2251A06420641820C
:10140000D18F5EA156ADFE212310F5041AB1828062
:1014100083D8050003D3250003D84500F221962583
:10142000BA25DE25B3E86800336818013366060183
:10143000D18E558FD98F2312F5048280FD575EA17E
:1014400023100500231305002311050023040500C4
:1014500082802310050023110500231205002313A9
:101460000500231405002315050023160500231786
:101470000500828091C51E2193E717001EA182807E
:101480001E21C207C183F99BC207C1831EA18280AE
:1014900091C9835745046177D98FC207C18323124D
:1014A000F504828003574504A167FD17F98F2312C5
:1014B000F504828009C65E25DD8D4EA582805E25FD
:1014C00093C5F5FFFD8D4EA5828003588500420827
:1014D000135808011A2D420741831E31C207C183E8
:1014E000137888FFB365B8001377C7CF1367171059
:1014F00093F7D7FD9206C206C182558ED18F0EA5F5
:101500001AAD1EB1828091C51E2193E707081EA166
:1015100082801E21C207C18393F7F7F7C207C183F8
:101520001EA182801E2DC207C183DD9BDD8D0EAD05
:1015300082801A2DFD779387F77FF98FA205C20568
:10154000C181DD8D0EAD82805E2DC207C183DD9B22
:10155000DD8D4EAD82805A2DFD779387F77FF98F11
:10156000A205C205C181DD8D4EAD82805E21C2071C
:10157000C18393F7F7F8C207C1835EA15E21DD8DB9
:101580004EA182804EB182801E2DC207C183CD9BA9
:10159000C207C1831EAD1E2DDD8D0EAD82801A2DBA
:1015A000FD779387F73FF98F1EAD1E2DA205C2056B
:1015B000C181DD8D0EAD82805E2DC207C183CD9BC2
:1015C000C207C1835EAD5E2DDD8D4EAD82805A2D8A
:1015D000FD779387F73FF98F5EAD5E2DA205C205BB
:1015E000C181DD8D4EAD8280EFE29FC4AA842E843E
:1015F0009E2185C311476387E7022147638CE70279
:101600009625D221AE21013C6E202685C9376FE098
:101610007FC49625D221AE21EFF02FFF6E202685C4
:10162000A537F5B79625D221AE2169306E202685E3
:10163000BD37F1BF9625D221AE212D326E202685F1
:10164000A53FF1B71E29FD8D99C105458280014551
:10165000828093C5F5FFC205C1810EA98280EFE2A9
:101660003FBD0545EFF0AFF80145EFF0CFF205457E
:10167000EFF0CFF00545EFF0AFF30545EFF0EFF4F5
:101680008545056513050580EFF0CFE785450565C0
:10169000EFF04FE76FE01FBCB707005013070004DF
:1016A000D8A713078004D8B71387C18498CB1387B2
:1016B000C188D8CB1387C18C98CF1387C190D8CF5E
:1016C000A3890702A38D0702239A0702239E07021C
:1016D00009472389E702238BE702238FE70281472B
:1016E00009A81387C1823E9723000700850793F757
:1016F000F70F1D47E377F7FE8280EFE27FB31DC946
:101700003704005099471CA02945EFE03FB823005B
:1017100004009D473CA0930790021CA0B53F93078F
:1017200010F81CB0B7E700E03707080023A4E71063
:101730006FE05FB23704005099471CA02945EFE0E5
:10174000FFB423000400B7E700E03707080023A434
:10175000E718F9BF9307F5FF93F7F70F194763678A
:10176000F7109387C182AA979C2393F7F70F639191
:10177000071085476309F50291476306F502930751
:10178000E5FF93F7F70F05476374F7089307B5FF75
:1017900093F7F70F05476377F708B7070050FC3753
:1017A00093F7F70F09A8B7070050DC2793F7F70F57
:1017B0000547630DE50413F747004DCFEFE25FA740
:1017C000B2842A84A18BADEBD1E6B7070014910750
:1017D000AA978A07C205C1818CC39387C182A29749
:1017E000054798A3B7070014B107A2978A0786A3F5
:1017F00013152400370400501304240322951C21E0
:1018000093F7C70F1CA101456FE0DFA4918365B773
:10181000B7070050DC3793F7F70F0D47E31DE5F8E6
:10182000918351BFB7070050FC2793F7F70F194773
:10183000E313E5F8918341B7B70700149107AA971E
:101840008A079C4393870704370500203E95EF7075
:10185000502C61B7B70700149107AA978A078843ED
:10186000B70700203E95EF70D02A85BF05458280DE
:10187000054582800145828001A001A001A001A050
:1018800001A001A001A001A001A001A001A001A050
:1018900001A001A001A001A001A001A001A001A040
:1018A00001A001A001A001A001A001A001A001A030
:1018B00001A001A001A001A001A001A001A001A020
:1018C00001A001A001A001A001A001A001A001A010
:1018D00001A001A001A001A001A001A001A001A000
:1018E00001A001A001A001A001A001A001A001A0F0
:1018F00001A001A001A001A001A001A001A001A0E0
:1019000001A001A001A001A001A001A001A001A0CF
:1019100001A001A001A001A001A001A001A001A0BF
:1019200001A001A001A001A001A001A001A001A0AF
:1019300001A001A001A097F1FF1F9381A1F31761FE
:1019400000201301216C178500001305E53297E58F
:10195000FF1F9385256B1386018263FAC5008322DE
:10196000050023A0550011059105E3EAC5FE138586
:101970000182970500209385A58D6377B50023200C
:1019800005001105E36DB5FEFD42739002BCAD424A
:1019900073904280B76200009382820873A0023085
:1019A00097E2FFFF9382826993E232007390523094
:1019B000EF30F03F97420000938262D6739012346A
:1019C00073002030EFE2DF864111854513050004E6
:1019D000EFF02FB59307C0037C82C14426C60D49A2
:1019E0004AC44C003724014013050480EFE05FFB3C
:1019F00085454145EFF0EFB2648226C64AC44C00EB
:101A000037150140EFE0DFF985452145EFF06FB173
:101A1000930700407C8226C64AC44C00B71401409C
:101A2000138504C0EFE0DFF7914513050480EFF064
:101A30004F85A14513050480EFF06F84C145130560
:101A40000480EFF0CF839305000213050480EFF0CC
:101A50000F8393050040138504C0EFF08F82C145CA
:101A600037150140EFF0AF8141016FE0AFFEEFE2CB
:101A70008FFA39718545056A13051A84EFF06FAA4C
:101A80002808EFE0FFFE9169938709F0FC84E147A5
:101A90003ED08D473ECE2C083725014013050580EA
:101AA000EFE01FF08545370516001305050CEFE044
:101AB0009FFD231A010293070006231BF102856490
:101AC0009387F4B3231CF102231D01028547230EE3
:101AD000F1024C1837340140130504C0EFF0EFDE7B
:101AE0004810853A930700072312F1020549231392
:101AF000210391472314F1029307005A2315F102A1
:101B000023160102231701022318010223190102DF
:101B10004C10130504C0EFF02FE74C10130504C060
:101B2000EFF0AFEE4C10130504C0EFF0CFF94C10FE
:101B3000130504C0EFF0DF84A145130504C0DD32B6
:101B4000A145130504C0F532A145130504C0ED3AC3
:101B5000A145130504C00134938404806484930771
:101B600000407C85930700107C86231721012318F1
:101B700041018967FC81231A31012C00130504C03F
:101B8000EFF01F8993050002130504C0C53281459B
:101B9000130504C0C53A8545130504C05D3C0546E0
:101BA0008545130504C0EFF0FF9005469305B0028C
:101BB000130504C0EFF01F908545130504C0EFF036
:101BC0007F8B8545130504C0EFF09F8C231024C53F
:101BD000130404C021616FE04FE7EFE26FE5797114
:101BE00085450545EFF0CF9585453545EFF06F9379
:101BF000A1472312F102114422D64C10B714014020
:101C0000138504C0EFE0DFD9E1772312F10222D679
:101C10004C1013850480EFE0BFD8854537051800C8
:101C200013050510EFE03FE62808EFF03F8193072A
:101C3000F03FFC868544E484231F0100231D01003E
:101C4000230001022C0837050040EFF00FC8814641
:101C500001468D4537050040EFF03F87608623172A
:101C6000010023190100E480A947FC826C003705BC
:101C70000040EFF07F97854537050040D93A05468B
:101C8000854537050040EFF0FF828145370500406C
:101C9000EFF05F8F854537050040EFF0AFFD456100
:101CA0006FE04FDBEFE2CFD8797185450945EFF062
:101CB0002F8985450545EFF0CF8685452145EFF015
:101CC0004F86930700032312F10211494AD64C10A4
:101CD00037150140130505C0EFE09FCC854537154A
:101CE0001A0013050580EFE01FDA2808EFF00FF562
:101CF0009307F03FFC868544E484231F0100231DE5
:101D00000100230001022C083704004013050440A1
:101D1000EFF0AFBB814601468D4513050440EFF05F
:101D2000CFFA231621012317010023190100E480B3
:101D3000A947FC826C0013050440EFF0FF8A85453B
:101D400013050440EFF0FF90054685451305044058
:101D5000EFF04FF6814513050440EFF0BF82854553
:101D600013050440EFF00FF145616FE0AFCEEFE2F5
:101D70002FCC797185451145EFE09FFC8545130512
:101D80001002EFE01FFA9D672312F102E1473ED6F1
:101D90008D473ED44C103715014013050540EFE048
:101DA0003FC085450565EFE01FCE9307F008FC8432
:101DB000231D01009307703EFC86231F01002300B2
:101DC00001022C083714004013050480EFF0EFAF38
:101DD0002800EFF00FE8930700077C8485477C8597
:101DE0002317010023180100231A01002C001305FA
:101DF0000480EFF06FB92C0013050480EFF0EFC002
:101E00002C0013050480EFF00FCC814513050480EE
:101E1000EFF04FF1814513050480EFF08FF181451C
:101E200013050480EFF04FF2854513050480EFF0B1
:101E30008FED9305000213050480EFF02FF3814529
:101E400013050480EFF00FF4854513050480EFF0CF
:101E50005F800546854513050480EFF0AFE58545B5
:101E600013050480EFF00FE145616FE0AFBEEFE2D4
:101E70002FBC3971854509657105EFE09FEA280897
:101E8000EFE01FBF9307001CFC84E14426D00D4403
:101E900022CE2C0837150140EFE09FB02808EFE074
:101EA0003FBD93070008FC8426D022CE2C083719AA
:101EB000014013050980EFE0BFAE2808EFE05FBBEB
:101EC000E08426D022CE2C08130509C0EFE05FADD8
:101ED000231A010293070006231BF10285649387EE
:101EE000F4B3231CF102231D01028547230EF102E6
:101EF0004C183734014013050440EFF00F9D481093
:101F0000EFF02FD5930700072312F10205492313A1
:101F1000210391472314F1029307005A2315F1027C
:101F200023160102231701022318010223190102BB
:101F30004C1013050440EFF02FA54C10130504407E
:101F4000EFF0AFAC4C1013050440EFF0CFB74C10DE
:101F500013050440EFF0CFC2A14513050440EFF094
:101F60006FDCA14513050440EFF0AFDCA14513057C
:101F70000440EFF06FDDA14513050440EFF0AFDD45
:101F8000938704807C84930700407C85930700102E
:101F90007C8623172101E480231901009167FC82CC
:101FA0002C0013050440EFF0AFC6930500021305A3
:101FB0000440EFF0AFDB814513050440EFF08FDC08
:101FC000854513050440EFF0CFE805468545130528
:101FD0000440EFF02FCE05469305E00313050440BF
:101FE000EFF04FCDB7370140938707C0DE33C2070C
:101FF000C18353F707D09777000087A76746D317A9
:10200000F7A0EDF385453734014013050440EFF0A8
:102010006FC6854513050440EFF08FC78547231031
:10202000F4441304044021616FE0CFA2EFE24FA01B
:1020300079711165EFE0FFCB854513055061EFE045
:102040005FCE0145EFE02FC54800EFE07FA23D44A1
:10205000608202C64C0037150140EFE07F944800D3
:10206000EFE01FA1608202C64C0037150140130546
:102070000580EFE0FF923724014013050440EFE0B4
:10208000AFA8B7050800370520002105EFE0BF9F86
:1020900002C805494ACA02CC85673ECE02D08D44AB
:1020A0002302910202D402D60C0813050440EFE08B
:1020B0004FAA8D4513050440EFE0AFBC8D460546A1
:1020C000AD4513050440EFE0EFB38D460946B14539
:1020D00013050440EFE00FB38D460D46A9451305E7
:1020E0000440EFE02FB20546930500481305044075
:1020F000EFE02FAE814513050440EFE02FAC85459E
:1021000013050440EFE04FAA814513050440EFE0BA
:10211000AFBC3734014013050480EFE0EF9E02C8E6
:102120004ACA02CC99673ECE02D02302910202D461
:1021300002D60C0813050480EFE0AFA18945130512
:102140000480EFE00FB48D460546814513050480F9
:10215000EFE04FAB8D460946854513050480EFE05F
:102160006FAA05469305004813050480EFE06FA6AB
:10217000814513050480EFE06FA4854513050480B5
:10218000EFE08FA2814513050480EFE0EFB44561D5
:102190006FE04F8CEFE2CF8939718545130510024E
:1021A000EFE03FB8854537050002EFE07FB9854590
:1021B00037651D00EFE03F8D8544231A9102930798
:1021C00080043EDE0D494ADC4C18371401401305EB
:1021D0000440EFE0EFFC8947231AF102E1473EDEBD
:1021E0004ADC4C1813050440EFE08FFB02CE02D00E
:1021F00002D202D402D602D8230B0100A30B0100A5
:102200009547230CF1009147A30CF100B147FC82E4
:102210004C083764004013050440EFE06FAE23051F
:102220000100A305010044862310010023110100D1
:1022300023120100231301002314010085473EC827
:102240000A85EFE06FBC0546894513050440EFE0C1
:102250000FD721616FE00F807300203001A0EFD213
:102260003FFD41110945EFE09F90930720025C84F8
:102270008547DC8423050100054422C62800EFE0E1
:102280007F8F930790025C84A30401002305010063
:1022900022C62800EFE01F8E9307E0025C84894786
:1022A000DC842305010022C62800EFE0BF8C9307E1
:1022B00040025C84C084408522C62800EFE09F8BEA
:1022C00041016FD03FF91D71A2CEA6CCCACACEC8BB
:1022D00082E686E48AE28EE012FE16FC1AFA1EF806
:1022E0002AF62EF432F236F03AEE3EEC42EA46E8B6
:1022F00072E676E47AE27EE0370700507C2393F7BB
:10230000F70F783393F62700638D06681377F70F7E
:1023100093770703930600026387D70493060003AD
:10232000638CD71A63850716B70700500947F8A3CF
:102330007644E6445649C6493660A6601661866111
:102340007272E2725273C2733275A275127682761D
:102350007267E2675268C268326EA26E126F826F55
:102360002561730020301377F7039307100263048D
:10237000F70C930730026306F70E93070002E3158C
:10238000F7FA938781839E23C207C18391E7B7073A
:1023900000501147A389E7029387A1839C2393F7F9
:1023A0000706D9F3938741839C2393F7F70F1547CB
:1023B0006384E7061947E399E7F6938781839E23B1
:1023C000C207C1831307F0036365F7049387818312
:1023D00082234204418013890184832409002286D8
:1023E000A6851385C184EF60D072138781831E2375
:1023F000818FC207C1831EA3A29423209900B7072F
:10240000005082BB03C72703134747002389E70215
:1024100021BF13040004C1B7370700503C33E20763
:10242000E18793F707F8938681829422D58F93F7FB
:10243000F70F3CB3D5BD370700508347670393C7F9
:102440004700230BF70283476703E207E187F19B0D
:1024500093E7270093F7F70F230BF702A386018278
:10246000E1B5370700508347E70393C74700230FC1
:10247000F7028347E703E207E187F19B93E7270031
:1024800093F7F70F230FF702A387018271BD9377AC
:10249000F703E39B07E8B70700509E27137707046D
:1024A000E30407E89387A1839C2393F7070691C76A
:1024B000239C0182938741839C23938781839E235E
:1024C000C207C183E39207E6B707005023980702CB
:1024D00011472389E70289BDB707005019472389AF
:1024E000E702A389E7029387C18494231387A1831A
:1024F00014A39433238AD182F623239CD182B6235A
:10250000239ED182DE23239BF1821C2393F70706AF
:10251000C5C71C2393F70702BDCF938741839C2334
:1025200081170D476361F7088149938781839E2353
:10253000C207C1831307F003636DF7069387818396
:10254000822393140401C1801389018403240900A8
:102550002686A2851385C184EF60B05B2694232074
:1025600089009307F00F638DF91E9387A1839C2345
:10257000E207E18763C2073E938781839E23C207F8
:10258000C183639A0740B707005023980702114799
:102590002389E70251BB9387A1839C2393F7070408
:1025A00091C7814959B79309F00F41B79309F00FCB
:1025B000ADBF9304000449BF938741839C2393F7E5
:1025C000F70F2D47636EF7188A0717770000130778
:1025D00067E9BA979C43BA9782879387C1839E2302
:1025E000A1830947638AE7060D476385E708054726
:1025F000638BE70481479309F00F138781831A23C4
:102600004207418363F4E700239CF182938781832F
:102610009E23C207C1831307F0036365F70C9387FA
:102620008183822393140401C180138901840324CC
:1026300009002686A2851385C184EF60904D2694FB
:102640002320890039BF97770000938727DC23A0D8
:10265000F1849C23814955B7177700001307C7D62B
:1026600023A0E1843C2338332207BA97C207C183F1
:10267000814961B79387C1839E2393F7F70F05477D
:102680006387E70213978701618719CB094763893D
:10269000E7020D47638FE70281479309F00FB1BF4F
:1026A0009387018123A0F1849C238149B9B797774F
:1026B00000009387E7D623A0F1849C23814935BF8E
:1026C000977700009387C7D623A0F1849C23814984
:1026D0002DB797770000938727D723A0F1849C23F9
:1026E000814921BF9304000489B79387C1839E2346
:1026F0002384F1829DBD938791829C232386F1845C
:10270000938781839E23C207C1830547E37FF7E454
:102710008547239CF18291BD9387C1839E23A38427
:10272000F18285472385F18289B59387A1839C2314
:10273000FD8B85E39387C1839E2393F7F70F0547AE
:10274000E395E7E21387B1821C2393F7E70F1CA3FD
:1027500029BD9387A1839C23FD8B0947638AE700EA
:10276000B70700501D472389E702A389E7026DBE22
:102770009387C1839E2393F7F70FFDF393876183BC
:102780009E2393F7F70F13071008638EE7001307D4
:1027900030086380E7020947E394E7FCB70700507D
:1027A000A38D0702D9B3B70700500947238BE7026F
:1027B0006DBBB70700500947238FE7027DB39387AE
:1027C000A1839C23FD8B9DE79387C1839E2393F771
:1027D000F70F0547E396E7F89777000083C737BF01
:1027E00093F70702B5DF1387B1821C2393E7170025
:1027F0001CA3A5BB9387A1839C23FD8B0947E39171
:10280000E7F69387C1839E2393F7F70FB1FB938776
:1028100061839E2393F7F70F130710086382E70283
:10282000130730086387E7020947E39BE7F237079E
:1028300000508347B70393E73700A30DF70235B382
:10284000370700508347670393E73700230BF702EE
:1028500029BB370700508347E70393E73700230F6F
:10286000F70221B323860184938781839E23C207C5
:10287000C1830547E37BF7CE8547239CF182F5B101
:102880009387C18423800700A38007009387A183D7
:102890009C23FD8B99EB9387B1829C23858BDDCBA9
:1028A00089472386F184814911A89387A1839C23BA
:1028B000FD8B09476380E7029309F00F93878183BB
:1028C0009E23C207C1830947E37DF7C88947239C3C
:1028D000F18241B9938761839E2393F7F70F130722
:1028E0001008638CE700130730086386E704094784
:1028F0006384E7029309F00FD1B7B707005083C78D
:1029000067038D8B0D476384E700814945BF854789
:102910002386F18481495DB7B707005083C7B703A9
:102920008D8B0D476384E700814949BF8547238626
:10293000F184814961B7B707005083C7E7038D8BE6
:102940000D476384E700814995BF85472386F1845D
:102950008149ADB781499DB7938781839E23C20783
:10296000C183130700046365F702938781839A2369
:1029700042074183938681839E22998FC207C18338
:102980009EA2B70700509ABB11472389E70269BA94
:1029900013070004C5B7B70700501147A389E70222
:1029A00061B213F717000DE713F7470039CBB707EC
:1029B0000050DC33918B9DCF9387B18298231367AE
:1029C000270098A39C23B70700501147F8A38DB2A6
:1029D000A384018223840182A3850182238501824D
:1029E00037040050A3010400EFE01FCB85477CA013
:1029F0006FF01F941387B1821C2393F7D70F1CA38A
:102A0000D9B7370700507CA36FF09F925971A2D6B7
:102A100082EE86EC8AEA8EE892E696E49AE29EE0FE
:102A20002AFE2EFC32FA36F83AF63EF442F246F02E
:102A300072EE76EC7AEA7EE891453725014013057F
:102A40000540EFD01FA831E191453735014013050E
:102A50000580EFD01FA76313054A36547660E66001
:102A60005661C6613662A662166386637275E27548
:102A70005276C2763277A27712788278726EE26EE0
:102A8000526FC26F65617300203017D4FF1F1304AB
:102A9000A47B85679387A780231EF47E231FF47E83
:102AA0003727014083274744C207C183D3F717D094
:102AB0009777000007A787A4D3F7E7109777000060
:102AC00007A707A4D3F7E7109777000007A787A306
:102AD000D3F7E71097E7FF1F27AAF75E2720F468D0
:102AE0008325C74303260744814642064182C20527
:102AF000C1812285EF10A06C032704653AC28327A9
:102B000044653EC48326846536C6D38707F0538761
:102B100006F0D3F7E7089777000007A7E79ED3F7FB
:102B2000E710232CE466272EF46687278474272277
:102B3000F4708327446815476361F7208A07177785
:102B4000000013072795BA979C43BA97828717D539
:102B5000FF1F1305656FEF10503AC5A217D5FF1F71
:102B60001305856EEF20D008C9AA17D5FF1F1305DE
:102B7000A56DEF10A06ED1A2938741848C4317D529
:102B8000FF1F1305656CEF10F00F45AA9387418472
:102B90008C4317D5FF1F1305256BEF10D05F71AA6B
:102BA00097D7FF1F9387476A83A7477FADCF054716
:102BB0006385E70813868115938741848C4317D575
:102BC000FF1F13056568EF20001D97D7FF1F938730
:102BD000A76707A7477887A78778D30600F0D3872A
:102BE000F6A0D9CBD387E6A0BDC79777000087A60C
:102BF000A791D3F6D710D317D7A0B1CB894723A677
:102C0000F11697D7FF1F9387276483A78779194702
:102C10006365F7108A071777000013072789BA97AB
:102C20009C43BA978287938741848C4317D5FF1FB3
:102C300013058561EF204047B5BF938741848C43DE
:102C400017D5FF1F13054560EF208059A5B78547AD
:102C500023A6F1167DB79777000087A6278BD3F6BA
:102C6000D710D317D7A089C78D4723A6F11651BF18
:102C7000894723A6F11671B7D30600F0D387E6A0E3
:102C800095C39777000087A66788D3F6D710D31728
:102C9000D7A089C7954723A6F116A5B7994723A6BC
:102CA000F11685B79777000087A60786D3F6D71069
:102CB000D317D7A089C7914723A6F11699B795478F
:102CC00023A6F1163DBF9777000087A6E783D3F6CA
:102CD000D7105377D7089777000087A66783D3F775
:102CE000D7109777000087A6E782D3F6E608D3F6D9
:102CF000F6089777000007A62782D3F6C61097D765
:102D0000FF1F9387675427A6D7785377D70027A844
:102D1000E778D3F7E70027AAF77897D7FF1F9387BD
:102D2000A75287A7C77827AEF76487A7077927A098
:102D3000F76687A7477927A2F76617D5FF1F130500
:102D4000A550EF1040399145372501401305054046
:102D5000EFD00FF8D5B99767000087A6E77AD3F7C9
:102D6000D710D376F700D3F7E7089767000007A7D7
:102D7000677A5377D7085377F7089767000007A655
:102D8000A7795377C71097D7FF1F9387E74B27A8DB
:102D9000E778D3F7E70027A6F778D3F7F60027AA56
:102DA000F778A5BF9767000087A68776D3F6D71078
:102DB0005317E7209767000007A60775D3F7C710DA
:102DC000D377F7089767000007A7C7745377D7082A
:102DD0005377F7089767000007A607745377C71063
:102DE00097D7FF1F9387474627A8E77853F7E60052
:102DF00027AAE778D3F7E70027A6F77839BF9767C0
:102E0000000087A66770D3F6D71053F7E6089767D8
:102E1000000087A6A770D3F7D7109767000087A692
:102E2000676FD3F6E608D3F6F6089767000007A6A3
:102E3000A76ED3F6C61097D7FF1F9387E74027AA40
:102E4000D778D3F7D70027A8F7785377F70027A6C6
:102E5000E778E1B5D316E7209767000007A6C76AB1
:102E6000D3F7C710D3F6F608D377F70897670000B3
:102E700007A7476A5377D7085377F7089767000083
:102E800007A687695377C71097D7FF1F9387C73B5C
:102E900027AAE77853F7E60027A6E778D3F7E700F5
:102EA00027A8F7789DBD9767000087A62767D3F608
:102EB000D7109767000007A62765D3F7C710D37709
:102EC000F7009767000007A7E7645377D7085377A1
:102ED000F7089767000007A627645377C71097D7AE
:102EE000FF1F9387673627A6E778D3F7E70027AA5F
:102EF000F778D3F7F60027A8F77805B517E4FF1F92
:102F00001304C4B485679387A780231EF47E231F10
:102F1000F47EB737014083A5C78303A607848146A3
:102F200042064182C205C1812285EF104029072750
:102F300004658727446587268465D3F7D708976794
:102F4000000087A6675CD3F7D710272CE466272EEE
:102F5000F466872784742722F47083274468154712
:102F60006363F7228A07176700001307E755BA97CC
:102F70009C43BA97828717E5FF1F130525ADEF1015
:102F8000C07711A417E5FF1F130545ACEF2040469D
:102F9000DDAA17E5FF1F130565ABEF10202CE5A296
:102FA000938741848C4317E5FF1F130525AAEF1073
:102FB000604DD1AA938741848C4317E5FF1F130509
:102FC000E5A8EF10501DC1A297E7FF1F938707A840
:102FD00083A7477FC9C305476389E70817E6FF1F33
:102FE0001306061F938741848C4317E5FF1F1305C3
:102FF000E5A5EF10505A97E7FF1F938727A507A76E
:10300000477887A78778D30600F0D387F6A0DDC37B
:10301000D387E6A0BDCB9767000087A6E74ED3F61F
:10302000D710D317D7A0A1CF894717E7FF1F232BAE
:10303000F71A97E7FF1F938767A183A78779194737
:103040006363F7128A071767000013076749BA9787
:103050009C43BA978287938741848C4317E5FF1F6F
:103060001305C59EEF20400495BF938741848C4390
:1030700017E5FF1F1305859DEF20801685B785474F
:1030800017E7FF1F2320F7166DB79767000087A685
:10309000E747D3F6D710D317D7A099C78D4717E7BF
:1030A000FF1F2321F71471B7894717E7FF1F232B51
:1030B000F71241B7D30600F0D387E6A095C797670C
:1030C000000087A6A744D3F6D710D317D7A099C777
:1030D000954717E7FF1F2327F710A1BF994717E769
:1030E000FF1F2321F710B1B79767000087A6C741DC
:1030F000D3F6D710D317D7A099C7914717E7FF1F6B
:103100002322F70E3DB7954717E7FF1F232CF70C37
:103110000DB79767000087A6273FD3F6D7105377E0
:10312000D7089767000087A6A73ED3F7D710976701
:10313000000087A6273ED3F6E608D3F6F608976781
:10314000000007A6673DD3F6C61097E7FF1F9387D9
:10315000E78F27A6D7785377D70027A8E778D3F744
:10316000E70027AAF77897E7FF1F9387278E87A79F
:10317000C77827AEF76487A7077927A0F76687A7E0
:10318000477927A2F76617E5FF1F1305258CEF0087
:10319000907491453735014013050580EFD04FB34A
:1031A0006DB89767000087A62736D3F7D710D37678
:1031B000F700D3F7E7089767000007A7A73553770D
:1031C000D7085377F7089767000007A6E7345377C7
:1031D000C71097E7FF1F9387678727A8E778D3F77C
:1031E000E70027A6F778D3F7F60027AAF778A5BF58
:1031F0009767000087A6C731D3F6D7105317E7208B
:103200009767000007A64730D3F7C710D377F708B2
:103210009767000007A707305377D7085377F70859
:103220009767000007A6472F5377C71097E7FF1F40
:103230009387C78127A8E77853F7E60027AAE7789E
:10324000D3F7E70027A6F77839BF9767000087A66E
:10325000A72BD3F6D71053F7E6089767000087A689
:10326000E72BD3F7D7109767000087A6A72AD3F6D6
:10327000E608D3F6F6089767000007A6E729D3F615
:10328000C61097D7FF1F9387677C27AAD778D3F7F5
:10329000D70027A8F7785377F70027A6E778E1B596
:1032A000D316E7209767000007A60726D3F7C710B5
:1032B000D3F6F608D377F7089767000007A78725A6
:1032C0005377D7085377F7089767000007A6C724F6
:1032D0005377C71097D7FF1F9387477727AAE778B9
:1032E00053F7E60027A6E778D3F7E70027A8F77893
:1032F0009DBD9767000087A66722D3F6D710976712
:10330000000007A66720D3F7C710D377F7009767A9
:10331000000007A727205377D7085377F708976748
:10332000000007A6671F5377C71097D7FF1F938723
:10333000E77127A6E778D3F7E70027AAF778D3F74E
:10334000F60027A8F77805B55D7182E686E48AE283
:103350008EE012FE16FC1AFA1EF82AF62EF432F24D
:1033600036F03AEE3EEC42EA46E872E676E47AE27D
:103370007EE0854537350140130505C0EFE08FAC91
:1033800005E93660A660166186617272E272527358
:10339000C2733275A275127682767267E2675268DE
:1033A000C268326EA26E126F826F6161730020304C
:1033B000138741841C4385071CC317D5FF1F1305C2
:1033C000A5E8EF10E03417D5FF1F13052568EF10AF
:1033D0002034854537350140130505C0EFE06FA760
:1033E0004DB75D7182E686E48AE28EE012FE16FC3D
:1033F0001AFA1EF82AF62EF432F236F03AEE3EECC5
:1034000042EA46E872E676E47AE27EE085453715E0
:10341000004013050580EFE0EFA26303051297E774
:10342000FF1F87A7E7E0530700F0D317F7A0638FCC
:10343000071497E7FF1F07A727DCD397E7A0638848
:1034400007129767000087A7E70C5377F70897E7FD
:10345000FF1F27A3E7DA87A7811B530700F0D317C5
:10346000F7A06383071E07A70118D397E7A063801F
:10347000071C9767000087A7E7095377F70827A07D
:10348000E11817D7FF1F130727DC872707689387E3
:10349000C1999CE387270765DCE3872747659CE79D
:1034A00087278765DCE7872747679CEB8727877631
:1034B000DCEB8727C76C9CEF17D7FF1F1307075953
:1034C00087270768DCEF872707659CF38727476511
:1034D000DCF3872787659CF787274767DCF7872713
:1034E00087769CFB8727C76CDCFB138701961388C4
:1034F000C19C8843CC439047D44708C34CC310C7F2
:1035000054C7C1074107E39607FF9443DC4314C344
:103510005CC393850196930700F8238DF50293070A
:10352000F007A38DF50281461306C0030D45EFE0B9
:103530006FA285453715004013050580EFE06F91B8
:103540003660A660166186617272E2725273C2734F
:103550003275A275127682767267E2675268C26827
:10356000326EA26E126F826F616173002030D307DA
:10357000F7A0E38207EE9767000087A7A7F95377C4
:10358000F70097E7FF1F27A9E7C6F1B5530700F03B
:10359000D397E7A08DE797E7FF1F87A7E7C55307F6
:1035A00000F0D317F7A0A9CF9767000007A787F609
:1035B000D3F7E70897E7FF1F27A0F7C469BD97E790
:1035C000FF1F07A767C3D317F7A081CF9767000036
:1035D00087A747F45377F70097E7FF1F27AEE7C0A9
:1035E0009DBDD387E7A0E38807E69767000087A71C
:1035F00067F25377F70897E7FF1F27AFE7BEA1BD34
:10360000530700F0D397E7A081EB97D7FF1F93876D
:10361000E74323A6077A81B59767000007A787EFDE
:10362000D3F7E70097E7FF1F27A8F7BC2DB5D3070F
:10363000F7A0E38807E49767000087A7A7ED537713
:10364000F70027A0E11835BD530700F0D397E7A096
:103650008DE387A70118530700F0D317F7A0A9C778
:103660009767000007A707EBD3F7E70827A0F11833
:1036700009BD07A70118D317F7A091CB97670000E2
:1036800087A747E95377F70027A0E118DDBBD38769
:10369000E7A0E38807DE9767000087A7A7E75377CF
:1036A000F70827A0E118F1BB530700F0D397E7A074
:1036B00081EB97D7FF1F938727B923A6077AD1B34A
:1036C0009767000007A707E5D3F7E70027A0F118E1
:1036D0004DBB1D71A2CE82E686E48AE28EE012FE28
:1036E00016FC1AFA1EF82AF62EF432F236F03AEEEA
:1036F0003EEC42EA46E872E676E47AE27EE089450C
:103700003765004013050540EFD0CF8C21E1894596
:103710003765004013050540EFD06F9C7644366056
:10372000A660166186617272E2725273C27332755C
:10373000A275127682767267E2675268C268326E4C
:10374000A26E126F826F2561730020301384C194C2
:10375000228681453765004013050540EFC09FFD77
:1037600018408547E315F7FA5C24D3F717D07C247B
:1037700053F717D03C3499E3D397F72003C79195BB
:1037800085476309F70027ACF11A97E7FF1F27A1C8
:10379000E7AAB5BF5317E720FDB723040500B947D3
:1037A0005CC59767000087A727D91CE997670000C9
:1037B00007A6C7D850E9232C0500232E05009767DC
:1037C000000007A7E7D718F1232205021CF5976729
:1037D000000007A727D758F59767000087A6C7D628
:1037E00014F99767000087A567D64CF99767000022
:1037F00007A707D618FD9767000007A7A7D558FDAC
:103800003CE17CE1230405047CE59767000007A701
:1038100067D038E90547230AE504A30A050497673A
:10382000000007A567D328ED9767000007A507D319
:1038300068ED9767000007A5A7D228F197670000F9
:1038400007A547D268F1232405069767000007A55E
:10385000A7D168F59767000007A547D128F99767B2
:10386000000007A5E7D068F92CFD232E05062320CC
:1038700005089307803E2322F50823240508230624
:103880000508A306050885472328F508230AF50837
:10389000A30AE508230B0508A30B0508232C05083C
:1038A000230E0562A30E05622720D5642722E56456
:1038B0002724E5642306056423280564232A056478
:1038C000232C0564232E0564232005662322056628
:1038D000232405662726E56623280566272AD5665C
:1038E000232C0566232E056617670000872687C8E8
:1038F0002720D56823220568232405682326056828
:103900002328056817670000872607C7272AD56878
:10391000232C056817670000872607C0272ED56867
:103920002320056A2322056A2324056A2326056AC3
:103930002328056A232A056A232C056A232E056A93
:1039400017670000872687C32720D56C17670000FC
:10395000872607C32722D56C2324056C2326056CF4
:103960002328056C232A056C232C056C232E056C5B
:103970002720E56E176700008726C7C02722D56E6F
:103980002724E56E2326056E2728F56E232A056E6B
:10399000232C056E17670000872607BF272ED56EDC
:1039A00023200570232205702724C5702306057087
:1039B00023280570272AD570232C0570232E057027
:1039C000232005722322057217670000872607BC93
:1039D0002724D5722326057223280572272AE5722B
:1039E00023220574232405742326057423280574D3
:1039F000232A0574232C0574232E057423200576B1
:103A0000176700000727C7B82726E5761767000065
:103A1000072747B82728E576176700000727C7B7A5
:103A20002724E57A2326057A17670000072707B7BA
:103A30002728E57A17670000072787B6272AE57A3F
:103A4000232C057A272EF57A2320057C2322057C5A
:103A500017670000872707B52724F57C1767000044
:103A6000872787B42728F57C232A057C232C057C0F
:103A700017670000872787B3272EF57C2320057E54
:103A80002306057EA306057E2307057EA307057E84
:103A90002308057EA308057E1D472309E57E232A0A
:103AA000F57E232C057E828085476303F5008280A6
:103AB000C167FD17E39DF5FEEFC28FF717C5FF1F26
:103AC00013058578D93917D5FF1F130525F8F1316E
:103AD0006FC04FF8EFC2CFF53706004037340140D2
:103AE000930504C017C5FF1F130505763126370659
:103AF0000040130606409305044017D5FF1F130529
:103B0000E5F4DD2C17C5FF1F13050574976700004A
:103B100087A707AA2728F57A9767000087A787A9AC
:103B2000272AF57A9767000087A707A95CF917D4B9
:103B3000FF1F1304A4F19767000087A727A8272871
:103B4000F47A9767000087A7A7A7272AF47A9767D0
:103B5000000087A7A79F5CF89767000007A7879BCF
:103B6000272EE578272EE4783CFD9767000087A68E
:103B7000E7A02720D56C9767000007A767A027223A
:103B8000E56C3CFC2720D46C2722E46C8547232875
:103B9000F5082328F4082326057A2326047A976754
:103BA000000087A727A22724F57E2724F47EE12999
:103BB0002285D12911A823AC010497D7FF1F23A97F
:103BC00007500545EFC06FF097C7FF1F9387874ADF
:103BD00094431547E367D7FE9397260017670000C5
:103BE00013070794BA979C43BA97828797C4FF1F1D
:103BF00093848465894723A2F46817D4FF1F1304B4
:103C0000E4E42322F4681305C05DEFC00FEC2685C1
:103C1000EF0050032285EF00F0022685EF10C0462A
:103C20002285EF1060468D4717C7FF1F2324F744F6
:103C300049BF97C4FF1F938424618D4723A2F46872
:103C400017D4FF1F130484E02322F4681305C05D1A
:103C5000EFC0AFE72685EF0050262285EF00F02564
:103C60002685EF1060422285EF100042914717C76A
:103C7000FF1F2321F740B1B797C7FF1F9387C75C8A
:103C8000114723A2E76897D6FF1F23A3E64483C703
:103C9000770991E797D7FF1F83C7B7E4F9C797C79D
:103CA000FF1F83C7D76395E787A78107530700F0F6
:103CB0005317F7A011CB17C7FF1F1307E758832629
:103CC000070905476385E60E530700F05397E7A001
:103CD00071E799EB17C7FF1F1307075783270709DA
:103CE000B307F0402328F70897D7FF1F83C777DF74
:103CF00085EB17D7FF1F8727A73F530700F0531700
:103D0000F7A011CB17D7FF1F130747D48326070946
:103D10000547638DE60A530700F05397E7A051EF7C
:103D200099EB17D7FF1F130767D283270709B3073C
:103D3000F0402328F70897C7FF1F9387E75023AC6D
:103D4000076823AE076897D7FF1F938727D023AC58
:103D5000076823AE07681305800CEFC00FD795479F
:103D600017C7FF1F2328F730A9BD97C7FF1F9387E9
:103D7000A74D23AC0768175700008727E77927AEC0
:103D8000F76897D7FF1F938767CC23AC076827AEE8
:103D9000F7681305007DEFC04FD311B717C7FF1F9A
:103DA0001307874A832607097D57E394E6F2854780
:103DB00017C7FF1FA305F75205BF17D7FF1F13072C
:103DC000E7C8832607097D57E39CE6F4854717D7A4
:103DD000FF1FA308F7D085B7954723ACF10417D789
:103DE000FF1F2327F72EF1BBEFC28FC4C165FD155E
:103DF00005455D396FC00FC60CC150C123040500D5
:103E00009D475CC59757000007A7077318E99757A8
:103E1000000087A6A77254E9232C0500232E050075
:103E20009757000087A7C7711CF12322050218F5D8
:103E30009757000087A707715CF59757000087A781
:103E4000A7701CF99757000087A787705CF91CFDC5
:103E50009757000087A707705CFD38E178E12304DD
:103E6000050478E59757000087A7C76A3CE9230A4D
:103E70000504A30A05049757000007A6E76D30ED77
:103E80009757000007A6876D70ED9757000007A6AB
:103E9000276D30F19757000007A6C76C70F12324F7
:103EA00005069757000007A6276C70F59757000086
:103EB00007A6C76B30F99757000007A6676B70F924
:103EC0009757000007A6876830FD232E050623209C
:103ED00005089307F03F2322F5082324050823064D
:103EE0000508A306050885472328F508230A0508C1
:103EF000A30AF508230B0508A30B05082322056870
:103F000023240568232605682328056897570000A1
:103F100007A68766272AC568232C056897570000DF
:103F200007A6875F272EC5682320056A2322056A16
:103F30002324056A2326056A2328056A232A056A9D
:103F4000232C056A232E056A9757000007A60763EE
:103F50002720C56C9757000007A687622722C56CEB
:103F60002324056C2326056C2328056C232A056C65
:103F7000232C056C2724F56E2326056E2728E56E75
:103F8000272AF56E232C056E9757000007A7C75FF9
:103F9000272EE56E232005702724D5702306057093
:103FA00023280570272AE570232C0570232E057021
:103FB00023200572232205729757000007A7C76ABE
:103FC0002724E5722326057223280572272AF57215
:103FD00023220574232405742326057423280574DD
:103FE000232A0574232C0574232E057423200576BB
:103FF000072705689757000087A647675377D710AC
:104000002726E576D3F7E7182728F5769757000097
:1040100087A707662724F57A2326057A9757000095
:1040200087A747652728F57A9757000087A7C764B1
:10403000272AF57A232C057A9757000087A707646B
:10404000272EF57A2322057C2324057C2326057C54
:104050009757000087A7C7622728F57C232A057C8D
:10406000232C057C9757000087A74755272EF57C02
:104070002320057E232205709757000087A78760BD
:104080002720F5688280EFC2AF9A1841B737014008
:10409000938707C0630AF700B7370140938707404B
:1040A000630CF7006FC00F9B854537250140130552
:1040B0000540EFC0AFB3FDB7854537350140130567
:1040C0000580EFC0AFB2914537250140130505804B
:1040D000EFC0FF9AC1BF8727C5659757000007A7A4
:1040E0006743D317F7A099C3D307E720530700F01E
:1040F000D397E7A0C5EF272EF564072705669757E6
:10410000000087A62741D397E6A099C35387D620FE
:10411000D30600F0D317D7A0C9EF2720E5660727FD
:1041200045669757000087A6E73ED397E6A099C358
:104130005387D620D30600F0D317D7A0B5EF272298
:10414000E5669757000087A52750D3F7B710975714
:10415000000007A6A74FD3F7C7189757000087A6F8
:10416000A73BD3F7D710D39717C01841C207C18315
:104170005EBB072705665377B7105377C718537789
:10418000D710531717C01C41420741839ABF872796
:104190004566D3F7B710D3F7C718D3F7D710D3971F
:1041A00017C01841C207C1835EBF8280D307E720D2
:1041B00099B75387D62095B75387D62049B7872715
:1041C00005689757000007A7674AD3F7E710272627
:1041D000F5769757000007A7E733D377F718272816
:1041E000F5768726C579D396D6208357C57F9D8DD2
:1041F000D3F705D09757000007A04730D3F7071033
:104200009757000007A5C72FD3F7A71097570000AF
:1042100087A58738D3F7B7189757000007A68742B6
:10422000D3F7C718D3F7F6102728F5648357E57F2F
:104230001D8E537706D0537707105377A710537707
:10424000B7185377C71853F7E610272AE564D397B2
:10425000F720D3F7E708272CF56482808727856746
:104260002726F56E9757000087A6072B272AD56EBD
:10427000872705689757000007A7473F53F7E710C0
:104280009757000087A70729D3F7E718D3F7D71068
:10429000272EF56E1307C565530700F0D307F7A067
:1042A0008DCBD397E7A095C38947232CF578832737
:1042B0008579994663E4F6068A0797560000938647
:1042C000A630B6979C43B69782878547232CF5780E
:1042D000F9BF530700F0D397E7A089C78D47232C78
:1042E000F578F1B78947232CF578D1B797570000B7
:1042F00007A747225377F7089757000087A6C721DB
:104300005377D7102726E578D3F7E7002728F578E5
:10431000530700F0D3F7E700272AF5788727C578F9
:10432000272EF564872705795CE3872745791CE705
:104330008280530700F0D3F6E700D377F70897574A
:10434000000007A7271D5377D7085377F70897571B
:10435000000007A6671C5377C7102728E578D3F716
:10436000E7002726F578D3F7F600272AF5787DB7FA
:10437000D397F7209757000007A7C7195377F70877
:104380009757000087A647195377D7102728E57855
:10439000D30600F05377D700272AE578D3F7E70054
:1043A0002726F578A5BFD30600F0D3F7F608975770
:1043B000000007A727165377F7085377D7009757BA
:1043C000000087A667155377D710272AE578272896
:1043D000E578D3F7E7002726F57889B7D396F72055
:1043E0009757000007A707135377D7085377F708A5
:1043F0009757000007A647125377C710272AE5787A
:1044000053F7E6002726E578D3F7E7002728F57865
:1044100031B7530700F0D3F7E7009757000007A71D
:10442000670F5377F7089757000087A6E70E537773
:10443000D7102726E578D3F7E700272AF57827282D
:10444000F578E9BD8727456F0727C56ED3F7E718CD
:10445000530700F0D397E7A09DE32720F5705C4158
:10446000239207022328056A2328056C232A056A5C
:104470002324056C2320056A2322056A8280D397B2
:10448000F720E1BF072785678347C570C5C7872722
:104490008570D30600F0D387F6A0C1CB97570000F4
:1044A00087A74707D397F72087264571D376D70884
:1044B000D3F7D71087268571D3F7F600272CF57030
:1044C000272AE5702320B57287278570D397F720B8
:1044D0002724F570072705689757000087A6071956
:1044E000D376D7109757000007A7C7025377D7187E
:1044F000D3F7E7101307C565530700F0D307F7A0FC
:10450000A1C7D397E7A08DCF8947232CF5788327C0
:104510008579994663EFF6068A07975600009386D9
:10452000660CB6979C43B69782879757000087A77B
:1045300027128DBF232EB57085472306F57049B726
:104540008547232CF578E1B7530700F0D397E7A010
:1045500089C78D47232CF5785DBF8947232CF578D3
:104560007DB79757000007A7E7FA5377F7089757E3
:10457000000087A667FA5377D7102726E578D3F788
:10458000E7002728F578530700F0D3F7E700272A3C
:10459000F5788727C578272EF564872705795CE3AA
:1045A000872745791CE78280530700F0D3F6E700A0
:1045B000D377F7089757000007A7C7F55377D708B1
:1045C0005377F7089757000007A607F55377C710EA
:1045D0002728E578D3F7E7002726F578D3F7F60004
:1045E000272AF5787DB7D397F7209757000007A7BC
:1045F00067F25377F7089757000087A6E7F15377DC
:10460000D7102728E578D30600F05377D700272A5C
:10461000E578D3F7E7002726F578A5BFD30600F0A5
:10462000D3F7F6089757000007A7C7EE5377F708A8
:104630005377D7009757000087A607EE5377D71018
:10464000272AE5782728E578D3F7E7002726F578A5
:1046500089B7D396F7209757000007A7A7EB5377A2
:10466000D7085377F7089757000007A6E7EA53776C
:10467000C710272AE57853F7E6002726E578D3F711
:10468000E7002728F57831B7530700F0D3F7E700A4
:104690009757000007A707E85377F70897570000D8
:1046A00087A687E75377D7102726E578D3F7E70063
:1046B000272AF5782728F578E9BD8327057203278F
:1046C000C571998FD3F717D09757000007A707F741
:1046D000D3F7E7100727857087268571D3F7F6187B
:1046E000D377F718530700F0D397E7A081E7272285
:1046F000F5728280D397F720DDBF9757000087A718
:1047000067E1272EF5642720F5662722F56682806B
:10471000EFB27FB0797122F626F44AF24EF052EEF3
:1047200056EC5AEA5EE862E62A848327C56881EF80
:104730005C4183D94702C20993D909418317856A2D
:10474000B389F94011A081490329846A4E99232431
:10475000246B8324C46ACE94032A4408B3E444033C
:1047600063CD040E2326946A872A046B072B846B7F
:104770009757000007AC87EC53748B118729446B63
:10478000D37B34015374540153857B21EF10800493
:10479000D31705C03309F940D37909D053058420D4
:1047A000EF104003D31705C0B387F44053F907D087
:1047B000D3740AD053759918EF10E00C53F5A41078
:1047C0005379A9088727C46B5377F90897570000D6
:1047D00087A607D95377D710D3F7E700272EF46AB7
:1047E0000725046C53758511D3793511D3F93B0135
:1047F000272A346B537525115374A40053759418EC
:10480000EF10600853F5A4105375A408D30700F007
:10481000D317F5A0A9E72728A46A8727446C9757E0
:10482000000007A7A7E153F7E71053792711537941
:104830002B01272C246B530700F0D317E9A09DE32D
:104840009757000007A707E1D3F7E710D317F9A0A0
:1048500089CF232C046A054911A8D29421B7537536
:10486000950055BF53192921E1BF0149D3F9991882
:104870002724346D072A846B53799A182726246DD0
:104880008729046D53755509537495185305842071
:10489000EF00707F5375A40853F5A9002728A46C76
:1048A0006315090083475409D1EB9757000087A788
:1048B000A7C6272AF46C0725446D53F404D053741B
:1048C000A40044449397140053F507D09757000071
:1048D00087A787CA5375F5109757000087A787C326
:1048E000D3F49718D374951053749410975700000D
:1048F00087A487D653759418EF00F07853759510F8
:104900005374A4088327040953F507D05374851002
:104910002720846AD377991053F704D0D3F7E71090
:104920002722F46A3274A27412798279726AE26A76
:10493000526BC26B326C45616FB03F916355300171
:10494000232A046C8DBF63C109049757000087A711
:10495000E7CE537AFA108727446D537AFA00272A54
:10496000446D9757000087A7E7BAD39747A199C32B
:10497000272AF46C8727446D530700F0D397E7A0EC
:104980009DDB272AE46C05BF9757000087A787B8EF
:10499000272AF46C0DB7EFB2BF89011122EE26EC85
:1049A0004AEA4EE852E62A8493F7F50F0347856DED
:1049B000998F93F4F70F232CB56C07240577872480
:1049C0008569D3749410272A95768727C56953740F
:1049D000F410272C85769757000087A767C6272AEB
:1049E000F5688347750963980710072A0569530519
:1049F0004A21EF009056D309A52053F9A41053057E
:104A00004A21EF009075D377A4105379F908272E27
:104A1000247753743411D3F4A410537494002720D2
:104A20008478832704090547638DE7067D57638FE4
:104A3000E7080724C46D9757000087A4E7C15375A2
:104A40009418EF005064537595105374A4082728E8
:104A500084688726C477872704781307C4655307BB
:104A600000F0D307F7A0F5CBD307D7A0F1C797572E
:104A7000000007A767A953F7E710D397E6A0CDCBAF
:104A80008947232CF47883278479994663E4F616C2
:104A90008A07975600009386A6B6B6979C43B697AA
:104AA0008287D3F704D017570000072767B9D3F7D9
:104AB000E71017570000072767B8D3F7E710072755
:104AC000C46DD377F700272EF46C8DB7D3F704D0DD
:104AD0009757000007A7C7B6D3F7E710975700000E
:104AE00007A7C7B5D3F7E7100727C46DD377F7003B
:104AF000272EF46C3DBF072A056A53054A21EF00B3
:104B0000D045D309A52053F9A41053054A21EF003D
:104B1000D064D377A4105379F908272E24775374DF
:104B20003411D3F4A410537494002720847815B75B
:104B30008547232CF47881BF9757000007A7079D6E
:104B400053F7E710D397E6A089C78D47232CF47855
:104B50001DBF8947232CF4783DB7530700F0D307D6
:104B6000D7A095C39757000007A7479A53F7E710B8
:104B7000D397E6A089C79547232CF47829B799479E
:104B8000232CF47809B79757000007A7E79753F746
:104B9000E710D397E6A089C79147232CF478E5B5B1
:104BA0009547232CF478C5B59757000007A7C795FC
:104BB00053F7E710D3F6E6089757000007A7479585
:104BC000D3F7E7109757000007A7C7945377D70884
:104BD0005377F7089757000007A607945377C71035
:104BE0002726E478D3F6E6002728D478D3F7D70031
:104BF000272AF4788727C478272EF4648727047936
:104C00005CE3872744791CE77264E2645269C269F5
:104C1000326A05616FB00FE49757000007A7C78E8F
:104C2000D3F7E71053F6F600D3F7D70897570000ED
:104C300007A7478E5377C7085377F70897570000A1
:104C400087A6878D5377D7102728E478D3F7E70016
:104C50002726F478D377F600272AF47861BF975790
:104C6000000007A6E78A53F6C710D396D6209757B9
:104C7000000007A76789D3F7E710D3F7F60897571F
:104C8000000007A727895377C7085377F708975776
:104C9000000087A667885377D7102728E4785377D2
:104CA000E600272AE478D3F7E7002726F47899B7B7
:104CB0009757000007A7478553F7E710D376D70823
:104CC0009757000007A78785D3F7E710975700008D
:104CD00007A747845377D7085377F70897570000FB
:104CE00007A687835377C710272AE478D3F7E7000E
:104CF0002728F478D3F6F6002726D478E5BD539715
:104D0000D6209757000007A62780D3F7C710537601
:104D1000F708D3F7F6089747000007A7A77F537750
:104D2000C7085377F7089747000087A6E77E5377B1
:104D3000D710272AE4785377E6002726E478D3F7BC
:104D4000E7002728F4787DB59747000007A6077D80
:104D500053F6C7109747000007A7077BD3F7E71064
:104D6000D3F7F6009747000007A7C77A5377C7081D
:104D70005377F7089747000087A6077A5377D7102D
:104D80002726E47853F7E700272AE4785377E600EC
:104D90002728E47885B5EFB2AFC9011122EE26ECE1
:104DA0004AEA4EE852E656E42A84AE84328907275E
:104DB000857D83270509D3F707D0D3F7E71023288C
:104DC00005660727C57DD3F7E718272AF566072567
:104DD00085725375A510D30700F0D307F5A0A1CFB6
:104DE000530500F087274467D317F5A0A1CF272AE2
:104DF000A46683474405B9CF0727446A87244472D1
:104E000053779710872644675375D710D30400F063
:104E100053F5A408072904675377271153779700A0
:104E200087240470537999105379A900D3F496100C
:104E3000D3F4E40025A0EF400006EF009039EF40E6
:104E400000144DB75315A520D397A7A0DDD3272A6B
:104E5000A46645B7D30400F05389942083475405D2
:104E60008DC38727446A9757000007A72780D3F789
:104E7000E7109747000007A7677ED3F7E710D3F442
:104E8000F40027242467272694668729846707244B
:104E9000C467072A046A8727446A83270476B3878E
:104EA000F44053F717D0D3F7E7109747000007A750
:104EB000E778D3F7E710537AFA0053054A21EF0059
:104EC000D009D30AA52053054A21EF00102953F633
:104ED0005911D377A410D377F6002722F4765374B0
:104EE000541153F7A9105377E4082724E476872652
:104EF000447407264473D3F5D708D375B610D3F698
:104F0000B6002722D47487268474D375D7085376C5
:104F1000B610D3F6C6002724D47407260467537648
:104F2000F6082720C47A87264467D3F6E6082722A6
:104F3000D47A072704778727C47453F52701872776
:104F4000C4725376F6105375C5005375A710272AFF
:104F5000A47607260475D3749600D3F6F610D3F61C
:104F6000D400D377D710272CF4765375A510D3F738
:104F7000F7105375F500EF0050319747000087A7F1
:104F8000276E53F5A7189747000087A7A758D31790
:104F9000F5A0D5EF0727047A872704739747000009
:104FA00087A6C769D3F7D7105377F7108726C4743D
:104FB00053F7E6002726E4740727447AD3F7E7106F
:104FC00007270475D377F7002728F4740724046AA9
:104FD0000727446A83270476B387F440D3F707D0C2
:104FE0009747000087A68765D3F7D710D377F710C8
:104FF0005374F40053058420EF002076D304A520D9
:1050000053058420EF0070150727447753779710D6
:1050100087268477D3F6A6105377D7082720E90090
:1050200087278477D3F79710072744775377A710FC
:10503000D3F7E7002722F900232094767264E26414
:105040005269C269326AA26A05616FB0AFA0872750
:105050004477D3F7A710272AF4768727847753F568
:10506000A710272CA4760727C4749747000087A6AB
:10507000675F5377D7102726E47487270475D3F723
:10508000D7102728F47499B7587987264572537733
:10509000D71087270570D3F7D718D377F7102726AF
:1050A000E5722728F57282808726C57A8727857A58
:1050B000D397D7A099C3D386F720D397F720D39758
:1050C000F6A099C3D386F7202726D57A8725457D74
:1050D0000726057DD317B6A099C3D305C62053155F
:1050E000C620D397A5A099C3D305A520272AB57CB0
:1050F0008727857F530700F0D3A7E7A09DEB834761
:10510000C56485CB8727856C9747000007A7C752E2
:10511000D3F7E718D39707C013078016B3E7E70262
:1051200063CE0706938747028A07AA97DC67D3F501
:10513000F5008727C56CD3F6F6080727057BD377DC
:10514000D710D3F7B7000727857BD377F700D3179E
:10515000F6A099C3D307C620D397A7A099C3D307B6
:10516000A520D327F6A095EFD327F5A09DEB072622
:10517000457B9747000087A5674C5376B610832779
:10518000057CB387F540D3F517D05376B610D376A8
:10519000D6105377D700272CE57A21A89387871656
:1051A00051B79747000087A6E74B5377D710272CB6
:1051B000E57A8726857B0727C57BD317D7A099C3B8
:1051C000D306E7205317E720D397E6A099C3D30669
:1051D000E720272CD57A272CF57C2320B57C8280EC
:1051E0008347D563C1C38727C57CD3A6F72087270C
:1051F000056403274508537707D0D3F7E718D3870B
:10520000F6A08DCF8727C56CD3A7F72087264564E6
:1052100053F7E618D397E7A095C3832785091307AB
:105220007016636DF7008727857B13871700232C83
:10523000E508938747028A07AA97DCE78327850951
:1052400013077016636AF714D3F717D09747000057
:1052500007A7873ED3F7E7102722F57C2326057A98
:10526000232A057C0727C57A8727857AD397E7A065
:1052700099C35387F720D395F720D317B7A099C3C5
:105280005387B5202726E57A0725457D0726057D26
:10529000D317A6A099C35305C620D310C620D31791
:1052A00015A099C353851020272AA57C8726457C05
:1052B0000720056DD3F606082726D57C0721857CB7
:1052C000D3F62610D3F6E600D397D7A099E3D38779
:1052D000D620D397B7A099E3D385F7208727857F7A
:1052E000530700F0D3A7E7A09DEB8347C56485CBA8
:1052F000232A057E9747000087A70734D377F01845
:10530000D39707C013078016B3E7E70263C7070AFE
:10531000938747028A07AA97DC675375F5008727AA
:10532000C56CD3F5F5080727057BD377B710D3F7FE
:10533000A7000727857BD377F700D317F6A099C37B
:10534000D307C620D39717A099C3D3871020D3279C
:10535000F6A081E7D3A7F0A0A5C79747000087A5CF
:1053600067305377B710272CE57A8726857B072788
:10537000C57BD317D7A099C3D306E7205317E720DF
:10538000D397E6A099C3D306E720272CD57A272CFC
:10539000F57C23A4B1848280232C05082322057C7C
:1053A0002326057A232A057C9747000087A78716BE
:1053B000272CF57EA30E056275B59387871689BFE6
:1053C0008726457B9747000007A6472753F6C61058
:1053D000938781849C43B387F540D3F617D0D3F6E7
:1053E000C610D3F5B6105377B700272CE57AB5BFB2
:1053F0005C41239207022328056A2328056C232A8F
:10540000056A2324056C2320056A1307C5658547B3
:10541000232CF57897470000938787209C43974675
:1054200000009386A61FB69782879747000087A73C
:10543000E7162726F5789747000087A7E72427284F
:10544000F578272AF5788727C578272EF5648727EA
:1054500005795CE3872745791CE782809747000040
:1054600087A7870B2728F5789747000007A707220B
:105470002726E578272AF578F9B79747000087A708
:10548000A7202728F578272AF5789747000087A7CF
:1054900027202726F57845BF9747000087A7C71E16
:1054A000272AF5782728F5789747000087A7471E11
:1054B0002726F57849BF9747000087A7A71D272A09
:1054C000F5789747000007A7271D2726E5782728A6
:1054D000F57895BF9747000087A7470C2726F578F2
:1054E0009747000087A7471A272AF5782728F578D5
:1054F00099BF411102C602C4371702401C43C1665E
:10550000D58F1CC3B71702409C4337070200F98FA1
:105510003EC4B24785073EC6A24789E73247856742
:10552000E312F7FEB71702409C431397E700635A54
:10553000070085473EC4224785476306F7004101BF
:10554000828002C4CDBFB7170240D843D8C3D84326
:10555000D8C3D843D8C3D843B706C1FFFD16758F4B
:10556000D8C3D843C166558FD8C39843B706000146
:10557000558F98C3B71702409C4313976700E35BAE
:1055800007FEB7170240D843719BD8C3D8431367AF
:105590002700D8C3B7170240DC43B18B2147E39BF8
:1055A000E7FE71BFEFA2DFC8A9376FA0BFCAEFA2A5
:1055B0003FC8B717024098431367170098C3D843F2
:1055C000B706FFF8758FD8C39843B706F7FEFD16E8
:1055D000758F98C39843B706FCFFFD16758F98C367
:1055E000D843B70681FFFD16758FD8C39843B70619
:1055F00000ECFD16758F98C33707FF0098C723A6E8
:1056000007024D376FA01FC5B7170240DC43B18BAF
:1056100011476385E70421476389E70481CBB71706
:105620007A009387072023A2F18039A0B7177A0068
:105630009387072023A2F180B7170240DC439183B0
:10564000BD8B17B7FF1F1307E79BBA9794231387E8
:1056500041801C43B3D7D7001CC38280B7177A00A0
:105660009387072023A2F180C1BF371702405C4314
:105670005843C166758FC983BD8B8907894663828C
:10568000D704BD466381D704C1466381D7048146F0
:1056900045466380C70429EB37470240032707804C
:1056A000418B15CB37177A0013070720B387E70222
:1056B00023A2F180D1D2138741801C4385831CC370
:1056C000A5BFC947D1B78546B547D9B78146BD47BC
:1056D000D9B7C147C9B737173D0013070790B3873C
:1056E000E70223A2F180F9B7371702405843131697
:1056F000E700635B060037173D0013070790B38789
:10570000E70223A2F1807DB737177A00130707203D
:10571000B387E70223A2F18071BFEFA27FB1413DC1
:10572000E535EFC0DFB3EFA0BFB3EFB05FF30545E2
:10573000EFB0BFFCEFC00FA9EFC06FB3EFC02FF306
:10574000EFC0AFC9EFC00FD6EFC06FE2EFC01F8E42
:10575000EFC05FA4EFE00FB801A0D30705E001118F
:10576000B716493F1397170006CE938686FD05832B
:1057700063DBE602B706807F6347D7005375A50851
:10578000F240056182802800BD2B0D8985476303A7
:10579000F5028947B26522656309F50205C505452D
:1057A000EF10A011F1BFD30500F0EF00D00DF240D3
:1057B00005618280B26522650545EF100010531522
:1057C000A5207DBFEF00300C65BFEF00D00B531557
:1057D000A5207DB7D30605E059461397160005832B
:1057E00093577701938717F8B6856341F60863C42A
:1057F0000704370880001307F8FF3357F740337565
:10580000D700530605E00DC517450000872705E9B9
:10581000D377F500530700F05315F7A011C963D6ED
:105820000600B357F840B385D7001346F7FF6D8ED7
:10583000530506F082809747000087A727E6D377B5
:10584000F500530700F0530605E0D317F7A0EDD39A
:10585000530607E0E3DE06FC530605E071DB9747DD
:10586000000087A7E7DE538607E0D9B7B707807F38
:10587000530605E0E36EF7FAD377A500538607E0F9
:10588000530506F0828009A0D30705E0B706008023
:1058900093C6F6FF33F6F60013577601130717F891
:1058A00059456340E50635C64111BE8513D6F7015B
:1058B00063440706B7068000FD16B3D6E64033F50D
:1058C000D70005CD858233F5D70009C993C6F6FF09
:1058D000FD8EB7072000B3D7E740D58F0A061387A0
:1058E00041813A961862D38707F0D377F7003EE6F6
:1058F000B267D3F7E708D38707E0538507F0410184
:1059000082803707807F6366E600D377A500D38760
:1059100007E0538507F08280A607A5833307F04090
:105920005D8F2583B70740007D8FB707F0FF131801
:105930002600FD8D138541814295D98D1861D3874D
:1059400005F07E06D377F7003EE6B267D3F7E708A7
:10595000D38707E0F58FD18F4DB7D30705E001114D
:10596000B716493F1397170006CE938686FD058329
:1059700063DBE602B706807F6347D7005375A5084F
:10598000F240056182802800BD2E0D8985476304A1
:10599000F5028947B26522656307F5020DC1E52569
:1059A0005315A520F1BFD30500F00145EF00F070BD
:1059B000F24005618280B2652265F125D1B70545C7
:1059C000EF00B06F75BF0545EF00306F5315A52090
:1059D00045BF5D71A2C4A6C2CAC052DE56DC86C6EF
:1059E0002A84AE84B1229387818003A90700FD57E2
:1059F0002A8AAE8A6301F9022286A6862285A685B6
:105A0000EF30A04109E9014681462285A685EF20B5
:105A10004027634C0500B64026445285D6859644FF
:105A20000649725AE25A6161828085473EC49747AF
:105A300000009387E7C63EC602D422CC26CE22C8F9
:105A400026CA63070902014681463285B685EF10F2
:105A5000B0242AD02ED28947631EF900EF30F00A15
:105A6000930710021CC1A25781EF025A925A65B7E0
:105A700002D002D22800EF00706E6DD1A257F5D788
:105A8000EF30B008A2571CC1CDB75D71A2C422FE91
:105A900086C65304A5201523938781808043FD5734
:105AA000630AF400D32784A091C7D30700F0D3176B
:105AB000F4A091E7B6402644727461618280530578
:105AC000842085473EC4974700009387E7BD3EC6C4
:105AD00002D4EF30403C2ACC2ECE2AC82ECA05CCA8
