:100000006F10102713000000130000001300000001
:100010001300000013000000130000001300000094
:100020001300000013000000130000001300000084
:08003000130000007300100032
:100038000000000000000000881F00008C1F000066
:1000480000000000B61900000000000000000000D9
:10005800B8190000BA1900000000000000000000F4
:10006800BC19000000000000BE19000000000000DC
:10007800C0190000C2190000C4190000C619000008
:10008800C8190000CA190000CC190000CE190000D8
:10009800D0190000D2190000D4190000D6190000A8
:1000A800D8190000DA190000DC190000DE19000078
:1000B800E0190000E21900000C290000E619000010
:1000C800B02F0000EA190000EC190000EE1900003A
:1000D800F0190000F2190000F4190000F6190000E8
:1000E800F8190000FA1900001E2F0000FE19000080
:1000F800001A0000021A0000041A0000061A000084
:10010800081A0000722700000C1A00000E1A0000DE
:10011800101A0000121A0000141A0000161A000023
:10012800181A00001A1A00001C1A00001E1A0000F3
:10013800201A0000221A0000241A0000261A0000C3
:10014800281A00002A1A00002C1A00002E1A000093
:10015800301A0000321A0000341A0000361A000063
:10016800381A00003A1A00003C1A00003E1A000033
:10017800401A0000421A0000441A0000F41F000050
:10018800481A00004A1A00004C1A00004E1A0000D3
:10019800501A0000521A0000541A0000561A0000A3
:1001A800581A00005A1A00005C1A00005E1A000073
:1001B800601A0000621A0000641A0000661A000043
:1001C800681A00006A1A00006C1A00006E1A000013
:1001D8000000000000000000000000000000000017
:1001E8000000000000000000000000000000000007
:0801F8000000000000000000FF
:10020000397101436EC619A0397141536AC866CA73
:1002100062CC5ECE19A0397101535AD056D252D455
:100220004ED64AD826DA22DC06DE330161408282CD
:1002300041114AC026C222C406C68282B24D410183
:10024000024D924C224CB24B4101024B924A224A3F
:10025000B2494101024992442244B24041018280A4
:1002600097070020938747E19C4337177A001307CD
:100270000720B3D7E70293F7F70F2381F182130723
:10028000803EB387E7022390F1828280B7F700E0D7
:10029000D843799BD8C303C721823306A70281467E
:1002A00090CBD4CB98431367070198C39843136747
:1002B000170298C3B7F700E0DC43858BE5DF37F71B
:1002C00000E01C43F99B1CC38280B7F700E0D843D1
:1002D000799BD8C303D701823306A702814690CB0E
:1002E000D4CB98431367070198C398431367170249
:1002F00098C3B7F700E0DC43858BE5DF37F700E014
:100300001C43F99B1CC38280EFF29FF2B727014088
:10031000938707406309F500B7370140938707804B
:10032000630EF50005BF854513050020EF00303151
:10033000814513050020EF009030EDB7854513058A
:100340000040EF00D02F814513050040EF00302F13
:10035000D1BF5C413707F1E01307F7EF7D8F9C4178
:10036000944DD58FD44DD58FD441A206D58FD98F3A
:100370005CC11C4537F7F1FF1307D77F7D8F9C4980
:10038000D445D58F94458606D58FD98F1CC55C552D
:10039000370710FF7D177D8FDC29FD1793F7F70FC7
:1003A000D207D98F5CD5828091C51C4593E7170091
:1003B0001CC582801C45F99B1CC5828091C51C45CB
:1003C00093E707101CC582801C4593F7F7EF1CC507
:1003D000828093F5F50F09C65C41DD8D4CC18280AA
:1003E0005C4193C5F5FFFD8D4CC1828091C51C45D4
:1003F0002167D98F1CC582801C4561777D17F98FD5
:100400001CC58280A54763FDB7040328C500138778
:1004100065FF93171700BA971D473317F700134767
:10042000F7FF33770701B396F600558F58C5145D73
:1004300093D746018D8BB307F64093F7F70F8907E3
:1004400093F7F70F13972700BA977D473317F700F5
:100450001347F7FF758FB395F5004D8F18DD828038
:1004600003280501139715002E979D47B397E700C2
:1004700093C7F7FFB3F70701B396E600D58F1CC902
:100480007DB71C5D3707D0FF7D17F98FFD15D205AD
:10049000DD8D0CDD828019C9B737014003A7878045
:1004A000B7068000558F23A4E7808280B7370140CC
:1004B00003A78780B70680FFFD16758F23A4E7800A
:1004C00082801C41FD8D99C1054582800145828055
:1004D00093C5F5FF0CC1828099C55C4137070004C4
:1004E000D98F5CC182805C41370700FC7D17F98F92
:1004F0005CC18280E98D99C1054582800145828079
:100500001C41F59B1CC11C4193E717001CC101470E
:100510005C41858B99E7C167FD176304F700050708
:10052000C5BF5C41858BE9CF984585476307F708D0
:100530001C4193F7F7F71CC1D84585476304F708BA
:100540001C4193F7F7FB1CC1984985476301F708E5
:100550001C4193F7F7FD1CC1D8498547630EF70688
:100560001C41BD9B1CC1984D8547630CF7061C417F
:10057000DD9B1CC1D84D8547630AF7061C41ED9BE6
:100580001CC1BC21FA07B8316207D98FD8214207B4
:10059000D98FD8315207D98F9A217D17D98F5CCD49
:1005A0001C41F99B1CC101475C41858BA9C7C167F0
:1005B000FD176302F7040507C5BF1C4193E7070851
:1005C0001CC19DBF1C4193E707041CC1B5BF1C4162
:1005D00093E707021CC149B71C4193E707011CC1FF
:1005E00059B71C4193E787001CC169B71C4193E7C9
:1005F00047001CC179B75C41858B89C70145828062
:1006000001458280054582803C2505473317F70068
:10061000B767004083A6076093E6160023A0D76063
:1006200003A6C7619346F7FF758E23AEC7605C25AE
:10063000B1E3B767004003A6C760758E23A6C76005
:10064000938707406E21C205035825003025B3E586
:100650000501130686040E063E960CC25221420680
:10066000035805002C2533660601938585048E0505
:10067000AE97D0C3502585476304F6043C35D9E3D3
:10068000B767004003A64760758E23A2C7601E258A
:1006900081EBB767004003A64761F18E23AAD760BC
:1006A000162585476388F60614498547638CF60648
:1006B000B767004003A70760799B23A0E7608280AB
:1006C000B767004003A6C760598E23A6C76093870B
:1006D00007400E21C205035825003025B3E505016A
:1006E000130686040E063E960CC25221420603589B
:1006F00065002C2533660601938585048E05AE972B
:10070000D0C3ADBFB767004003A64760598E23A290
:10071000C760B5BFB767004083A64761D98E23AADB
:10072000D76059B7B767004083A6C761558F23AE1E
:10073000E760BDBF1C4513975700634E07001C457B
:1007400013974700634E07081C4513973700635DF6
:10075000070A894611A08146B687138786011207CA
:100760002A971043058A10C303C88500631C080636
:100770001387860112072A9703280700904156061F
:1007800083C89500336616013366C80010C3B825C8
:100790003D8BB8A5E1079207AA97D843419BD8C3E0
:1007A000D843B025518FD8C3F8256207D03542060B
:1007B000518FD0252206518FB035518F98C7B82957
:1007C000620790394206518F90292206518FF035E9
:1007D000518FD8C798431367170098C33685828016
:1007E00085469DBF1386860112062A968328060039
:1007F000D8410E073367070103C895003367070127
:1008000033E7E80018C261B79146C9BF9387B501C5
:100810009207AA979C43918B1CA6ADE39387B501E1
:100820009207AA979C43D5831CC29387B501920770
:10083000AA979843098B18B6D8433D8B38A6D8435E
:10084000218338BA984738B69847218358A69847E5
:10085000418358B69847618378A6D84778B6D84779
:10086000218318AAD847418318BADC47E1833CAA00
:1008700091ED5C4593E707025CC582809387B501E3
:100880009207AA979C438D835CC245B71C4993E7A6
:1008900007021CC98280084D13750507828009C6AE
:1008A0005C49DD8D4CC982805C4993C5F5FFFD8DA7
:1008B0004CC982805C49ED8F63810710EFF25F972E
:1008C00093070004638AF50A63F7B70293870580EC
:1008D000638C070C85679387078063FBB704C16748
:1008E0006380F50AB70702006380F50AA167638297
:1008F000F50C01450DA091476380F50663FEB70036
:10090000C1476383F506930700026383F506A14799
:100910006388F50401453DBA85476389F502894737
:100920006396F50048458D45F136F5B70145E5B7C5
:10093000930700206382F506930700406382F50663
:10094000930700106386F5040145F1B70845C165BA
:10095000938515104536C1B74845A145613E65BF31
:100960004845C145413E45BF08498D45613665B79B
:100970000849A145413645B70849C145A53E61BF73
:100980004841A145853E41BF4841C145A53661B7B3
:10099000084D8545853641B7084D8945A13EA5BF1F
:1009A000084D9145813E85BF084D93050007993656
:1009B0009DB7484191453D3EB9BF014582809307AF
:1009C0000010638FF50863F5B70293870580D9CFD0
:1009D00085679387078063F8B704C167638CF50662
:1009E000B7070200638BF506A1676386F50882806E
:1009F000A147638BF50463FDB7009307000263888A
:100A0000F50493070004639FF500C1471CC9828069
:100A100085476386F50291476395F500A1475CC55C
:100A200082808280828093070020638EF502930784
:100A300000406395F50091475CC182808280C16768
:100A4000938717101CC58280C1475CC58280A1476F
:100A50001CC98280A1475CC18280C1475CC1828081
:100A600091475CC1828091475CC18280232C050044
:100A700091475CC18280232C050091475CC185BFF2
:100A80009C4593F8F700C18B81C7DC41B3E8F800BF
:100A90009C21B9CB03280500014719A05CC90507B3
:100AA0009D4763E1E7048547B397E7009621FD8EF4
:100AB000E397D7FE13162700BD46B396C60093C62C
:100AC000F6FF33F806013396C800336806019445F3
:100AD00013068002E384C6FC13068004E391C6FC7F
:100AE0001CC975BF232005019A219307F00F63F0FD
:100AF000E70603284500014721A05CC981A005073E
:100B00009D4763E4E704130687008547B397C70052
:100B10009621FD8EE395D7FE13162700BD46B396AA
:100B2000C60093C6F6FF33F806013396C800336853
:100B30000601904593068002E301D6FC904593069A
:100B40008004E31ED6FA1CC95DBF23220501828002
:100B5000FD571EA189475CC191471CC582800CC905
:100B600082804CC98280AA8663410504B707014090
:100B7000DC43135705013D8B13160501418263CAFF
:100B8000060237083000B378050163880807131898
:100B9000B500635E08080D483317E8001347F7FFF8
:100BA0007D8FB707000FD98FADA0B7070140DC4F8D
:100BB000C9B737083000B3780501638D08011318F1
:100BC000B500635108020D483317E8001347F7FFDB
:100BD000F98F81A041070D483317E8001347F7FF4D
:100BE000F98F05A8135755011377F73F12073317ED
:100BF000E6001347F7FFF98F29A8370700F17D17A3
:100C0000F98FB708014003A848003377E80023A212
:100C1000E80081C955811375F53F12053315A6000B
:100C2000C98F63C20602370701405CC38280135735
:100C3000550112073317E6001347F7FF7D8FB707FB
:100C4000000FD98FF9B7370701405CCF828023A20C
:100C5000A1828280938741829C4385EF14213C21AD
:100C6000920793F7F70F37E700E036972300F74036
:100C70005C41638207141821935757008546B39649
:100C8000E600938707048A0737E700E0BA9794C322
:100C900082809387418298438547630FF702938749
:100CA0004182984389476304F706938741829843BA
:100CB0008D476308F70A9387418298439147E31968
:100CC000F7FA14211C31920793F7F70F37E700E08A
:100CD00036972300F74069BF1831630DF7001421E0
:100CE0003C21920793F7F70F37E700E03697230090
:100CF000F740BDBF14213C21920793E707F893F713
:100D0000070F37E700E036972300F74095B71C310F
:100D100005476377F70238219387E7038A0793F73C
:100D2000F70FBA9793F7F70F1421920793E707F895
:100D300093F7070F37E700E036972300F7400DBF22
:100D400038218A0793F7F70FBA9793F7F70F142113
:100D5000920793F7F70F37E700E036972300F74045
:100D600001BF1C310D476363F7023821860793F7F3
:100D7000F70FBA9793F7F70F1421920793F7F70F2E
:100D800037E700E036972300F740DDB53821938739
:100D9000C707860793F7F70FBA9793F7F70F142152
:100DA000920793E707F893F7070F37E700E03697C6
:100DB0002300F74075BD1821935757008546B39619
:100DC000E600938707068A0737E700E0BA9794C3DF
:100DD0008280B7160240DC4251777D17F98F5D8D16
:100DE000C8C2828099C5371702405C4B5D8D48CBE5
:100DF0008280371702405C4B1345F5FF7D8D48CB51
:100E0000828099C5371702401C4F5D8D08CF8280C4
:100E1000371702401C4F1345F5FF7D8D08CF8280A8
:100E200099C5371702405C4F5D8D48CF82803717D8
:100E300002405C4F1345F5FF7D8D48CF828099C5F8
:100E4000371702405C475D8D48C7828037170240E4
:100E50005C471345F5FF7D8D48C78280B717024078
:100E6000D857B70600F9FD16758FD8D7D857620541
:100E7000498FD8D78280B7170240D857B70600F8F5
:100E8000FD16758FD8D7D8576E05498FD8D7828071
:100E9000B7170240D857B70600D0FD16758FD8D7C0
:100EA000D8577205498FD8D7828009C937170240B1
:100EB0005C57B7060040D58F5CD78280B7160240DA
:100EC000DC56370700C07D17F98FDCD68280B71754
:100ED0000240D857B706008093C6F6FF758FD8D763
:100EE000D8577E05498FD8D782800358050242081B
:100EF000135808011378E8FF42081358080123101B
:100F00000503035885014208135808011E31C20722
:100F1000C1831378C8F09206C206C182558E336829
:100F2000C800B7360140938606C0630DD504370765
:100F300000406309E504130707406305E50437171C
:100F4000004013070780630FE502371700401307BF
:100F500007C06309E5023737014013070740630301
:100F6000E50237570140130707C0630DE500375707
:100F700001406309E50013F757FFB367B70093E734
:100F8000170029A0F59BCD8F93E71700231C0501BF
:100F90001EB182801E31C207C183BD9BC207C183BF
:100FA0001EB1035885011E31C207C1831397450046
:100FB0009318070193D8080105671307F7CF337714
:100FC0000701B206C206C182D98E220642064182BC
:100FD000558E37370140130707C0630CE504370708
:100FE00000406308E504130707406304E50437176E
:100FF000004013070780630EE50237170040130710
:1010000007C06308E5023737014013070740630252
:10101000E50237570140130707C0630CE500375757
:1010200001406308E50093F7F7F5CD8F93E70701DB
:1010300039A093F7F7FDB3E7170193E7070112AD66
:101040001EB182801E31C207C18393F7F7EFC2073A
:10105000C1831EB15E2DC207C1831A3193180701E7
:1010600093D8080113978500131807011358080136
:1010700093F7C7F09206C206C182558ED18F3737DB
:101080000140130707C0630FE50437070040630BF7
:10109000E504130707406307E5043717004013070B
:1010A00007806301E50437170040130707C0630B8F
:1010B000E50237370140130707406305E50237575C
:1010C0000140130707C0630FE50037570140630B6A
:1010D000E5007D771307F75F33F7E800D98D93E5D7
:1010E000051039A093F5F8DFB3E5050193E5051088
:1010F0005EAD0EB182801A31FD77FD17F98F1EB1FA
:101100005A2D1E319398070193D808011398C500F2
:1011100042081358080185679387F7CFF98F220695
:10112000420641825D8EB206C206C182D18E373739
:101130000140130707C0630FE504B7070040630BC6
:10114000F504938707406307F504B71700409387BA
:1011500007806301F504B7170040938707C0630B4E
:10116000F502B7370140938707406305F502B7578B
:101170000140938707C0630FF500B7570140630B29
:10118000F500A1679387F7DFB3F7F800DD8D85677A
:10119000CD8F09A879777D17B3F7E800B367F8001A
:1011A0000567D98F56AD1EB182801E21C207C1834B
:1011B00037370140130707C06306E50437070040CF
:1011C0006302E50413070740630EE502371700408A
:1011D000130707806308E50237170040130707C0AD
:1011E0006302E5023737014013070740630CE5004F
:1011F00037570140130707C06306E5003757014022
:101200006316E50093F7F7F8BA21D98F3717004036
:10121000630CE500130707406308E50093F7F7CF79
:10122000C207C183FA21D98F1EA1DE215EB59E219E
:101230001EB5B7370140938707C06302F502B73781
:10124000014093870740630CF500B757014093872F
:1012500007C06306F500B75701406314F5009C25ED
:101260001EB985475EA982801E31C207C183F99BE2
:10127000C207C1831EB11E31C207C1835A21420772
:101280004183162DC206C18293F6C6F89221D18EF3
:10129000F59B92255D8EBE21D18F37360140130616
:1012A00006C06302C5023736014013060640630CD0
:1012B000C50037560140130606C06306C500375601
:1012C0000140631EC500DD9BB225D18FED9BD2216D
:1012D000D18F1377F7CFD225518FF225518F5AA195
:1012E00016ADFA215AB91EB182801E31C207C183E0
:1012F000BD9BC207C1831EB11E31C207C1835A21E3
:1013000042074183122DE5769386F6CFF18E922126
:10131000220642064182558E93F7F7FD96259206E6
:10132000C206C182DD8EBE219207C207C183D58F5E
:10133000B7360140938606C06302D502B736014036
:1013400093860640630CD500B7560140938606C0CD
:101350006306D500B75601406311D50493F7F7F73C
:10136000B6259206C206C182D58F93F7F7FBD62128
:101370009206C206C182D58FFD769386F63F3378FA
:10138000D700D6258A06139706014183B366070165
:10139000FA250A0742074183558F5AA112ADFA2157
:1013A0001ABD1EB182801E31C207C18393F7F7EFC9
:1013B000C207C1831EB11E31C207C1835A21420731
:1013C0004183562DC206C18293F6C6F89221D18E72
:1013D00093F7F7DF92252206420641825D8EBE21F9
:1013E000A207C207C183D18F37360140130606C05A
:1013F0006302C5023736014013060640630CC50080
:1014000037560140130606C06306C5003756014033
:101410006312C5047D761306F67FF18FB22522068E
:1014200042064182D18F13F6F7BFDE21A207C20721
:10143000C183D18F75767D163378C700D225120609
:1014400013170601418333660701FA251207420785
:101450004183518F5AA156ADFA215ABD1EB18280E7
:101460001A31FD77FD17F98F1EB11A315E21C207BF
:10147000C1830358C501E5769386F6CF33F806019C
:101480009621A206C206C182B3E6060179767D16D0
:10149000798E9A25320742074183598EBA21320745
:1014A00042074183518F37360140130606C063025D
:1014B000C5023736014013060640630CC500375697
:1014C0000140130606C06306C50037560140631A83
:1014D000C50071767D16F18FD2251A06420641822B
:1014E000D18F5EA156ADFE212310F5041AB1828082
:1014F00083D8050003D3250003D84500F2219625A3
:10150000BA25DE25B3E868003368180133660601A2
:10151000D18E558FD98F2312F5048280FD575EA19D
:1015200023100500231305002311050023040500E3
:1015300082802310050023110500231205002313C8
:1015400005002314050023150500231605002317A5
:101550000500828091C51E2193E717001EA182809D
:101560001E21C207C183F99BC207C1831EA18280CD
:1015700091C9835745046177D98FC207C18323126C
:10158000F504828003574504A167FD17F98F2312E4
:10159000F504828009C65E25DD8D4EA582805E251C
:1015A00093C5F5FFFD8D4EA5828003588500420846
:1015B000135808011A2D420741831E31C207C18307
:1015C000137888FFB365B8001377C7CF1367171078
:1015D00093F7D7FD9206C206C182558ED18F0EA514
:1015E0001AAD1EB182801E2DC207C183DD9BDD8D29
:1015F0000EAD82801A2DFD779387F77FF98FA205B4
:10160000C205C181DD8D0EAD82805E2DC207C18312
:10161000DD9BDD8D4EAD82805A2DFD779387F77F60
:10162000F98FA205C205C181DD8D4EAD82805E219C
:10163000C207C18393F7F7F8C207C1835EA15E2199
:10164000DD8D4EA182804EB182801E2DC207C183E6
:10165000CD9BC207C1831EAD1E2DDD8D0EAD8280D8
:101660001A2DFD779387F73FF98F1EAD1E2DA2052A
:10167000C205C181DD8D0EAD82805E2DC207C183A2
:10168000CD9BC207C1835EAD5E2DDD8D4EAD8280E8
:101690005A2DFD779387F73FF98F5EAD5E2DA2053A
:1016A000C205C181DD8D4EAD8280EFE27FB8AA8494
:1016B0002E849E2185C311476387E7022147638CEF
:1016C000E7029625D221AE213D346E202685C9370A
:1016D0006FE05FB89625D221AE21EFF01F816E201A
:1016E0002685A537F5B79625D221AE2165306E2027
:1016F0002685BD37F1BF9625D221AE21A1326E20BD
:101700002685A53FF1B71E29FD8D99C1054582802B
:101710000145828093C5F5FFC205C1810EA9828073
:1017200093F5F51F4EA182804A211375F51F828023
:101730001E21FD8D99C1054582800145828093F768
:10174000F50F958385463397B6006381D7028946A6
:101750006381D7025E297D8FA1818547B395B7004C
:101760001E21FD8D11CB99E9014582805E257D8F7B
:10177000E5B71E297D8FCDB7014582800545828062
:10178000A1818547B397B700C207C18393C7F7FF0D
:10179000C207C1831EA18280EFE29FA90545EFF039
:1017A0000FF30145EFF02FED0545EFF02FEB054569
:1017B000EFF00FEE0545EFF04FEF8545056513059A
:1017C0000580EFF02FE285450565EFF0AFE16FE0B2
:1017D0007FA8B707005013070004D8A71307800499
:1017E000D8B71387C18598CB1387C189D8CB138706
:1017F000C18D98CF1387C191D8CFA3890702A38D3C
:101800000702239A0702239E070209472389E7025A
:10181000238BE702238FE702814709A81387C18240
:101820003E9723000700850793F7F70F1D47E377DF
:10183000F7FE8280EFE2DF9F1DC937040050994711
:101840001CA02945EFE09FA4230004009D473CA075
:10185000930790021CA0B53F930710F81CB0B7E7A0
:1018600000E03707080023A4E7106FE0BF9E3704AD
:10187000005099471CA02945EFE05FA12300040018
:10188000B7E700E03707080023A4E718F9BF93077C
:10189000F5FF93F7F70F19476367F7109387C18236
:1018A000AA979C2393F7F70F639107108547630965
:1018B000F50291476306F5029307E5FF93F7F70FEB
:1018C00005476374F7089307B5FF93F7F70F0547CC
:1018D0006377F708B7070050FC3793F7F70F09A8AD
:1018E000B7070050DC2793F7F70F0547630DE504B2
:1018F00013F747004DCFEFE2BF93B2842A84A18B48
:10190000ADEBD1E6B70700149107AA978A07C20585
:10191000C1818CC39387C182A297054798A3B7075B
:101920000014B107A2978A0786A313152400370471
:1019300000501304240322951C2193F7C70F1CA108
:1019400001456FE03F91918365B7B7070050DC37E1
:1019500093F7F70F0D47E31DE5F8918351BFB707E4
:101960000050FC2793F7F70F1947E313E5F891832D
:1019700041B7B70700149107AA978A079C4393873A
:101980000704370500203E95EF70600A61B7B7077E
:1019900000149107AA978A078843B70700203E954D
:1019A000EF70E00885BF05458280054582800145CE
:1019B000828001A001A001A001A001A001A001A0BE
:1019C00001A001A001A001A001A001A001A001A00F
:1019D00001A001A001A001A001A001A001A001A0FF
:1019E00001A001A001A001A001A001A001A001A0EF
:1019F00001A001A001A001A001A001A001A001A0DF
:101A000001A001A001A001A001A001A001A001A0CE
:101A100001A001A001A001A001A001A001A001A0BE
:101A200001A001A001A001A001A001A001A001A0AE
:101A300001A001A001A001A001A001A001A001A09E
:101A400001A001A001A001A001A001A001A001A08E
:101A500001A001A001A001A001A001A001A001A07E
:101A600001A001A001A001A001A001A001A001A06E
:101A700097F1FF1F938101E0176100201301815846
:101A8000178500001305C58F97E5FF1F93858557C0
:101A90001386018263FAC5008322050023A0550046
:101AA00011059105E3EAC5FE1385018293850124A2
:101AB0006377B500232005001105E36DB5FEFD42F7
:101AC000739002BCAD4273904280B7620000938273
:101AD000820873A0023097E2FFFF9382225693E2BE
:101AE000320073905230EF30001F97320000938223
:101AF00082357390123473002030EFE26FF341119E
:101B000085451145EFF0EFAFC1477C8241494AC698
:101B10008D4426C44C003714014013050480EFE0C7
:101B20003FF685454145EFF0CFAD930700207C821D
:101B30004AC626C44C0037150140EFE07FF49305F8
:101B4000002037150140EFF0CF81C1451305048017
:101B5000EFF0EF8041016FE0EFEFEFE26FED3971F1
:101B6000854505651305D580EFF0AFA92808EFE09E
:101B70003FFE93070070FC8461494AD08D4426CE15
:101B80002C083714014013050480EFE07FEFF9774C
:101B9000FC844AD026CE2C08130504C0EFE05FEE8B
:101BA000231A010293070006231BF1028564938721
:101BB000F4B3231CF102231D01028547230EF10219
:101BC0004C1837340140130504C0EFF00FDE481005
:101BD0008D32930700072312F102054923132103D5
:101BE00091472314F1029307005A2315F10223169B
:101BF00001022317010223180102231901024C10CC
:101C0000130504C0EFF04FE64C10130504C0EFF0CD
:101C1000CFED4C10130504C0EFF0EFF84C10130596
:101C200004C0EFF0FF83A145130504C06D3AA14540
:101C3000130504C0C132A145130504C0F932A14502
:101C4000130504C0D13A9384048064849307004050
:101C50007C85930700107C8623172101231801003F
:101C60008967FC819167FC822C00130504C0EFF0AA
:101C70003F8893050002130504C0553A81451305BA
:101C800004C0D1328545130504C069340546854535
:101C9000130504C0EFF01F9005469305B00213052D
:101CA00004C0EFF03F8F8545130504C0EFF09F8A15
:101CB0008545130504C0EFF0BF8B231024C5130422
:101CC00004C021616FE00FD9EFE28FD679718545AD
:101CD0000945EFF0EF9485452545EFF08F92930786
:101CE00000032312F102914426D64C10371501400F
:101CF000130505C0EFE0DFD8854537151A00130539
:101D00000580EFE05FE62808EFF05F818567FD174B
:101D1000FC86231C0100231F0100231D010023005A
:101D200001022C083704004013050440EFF0EFC710
:101D3000814601468D4513050440EFF01F876486F8
:101D400023170100231901008547FC80A947FC8265
:101D50006C0013050440EFF05F95854513050440C2
:101D6000553A0546854513050440EFF0BF8281458D
:101D700013050440EFF03F8D854513050440EFF057
:101D80006FFD45616FE00FCDEFE28FCA797131656C
:101D9000EFF02F84854513055020EFF08F86014525
:101DA000EFE06FEF4800EFE0BFDABD477C8202C68C
:101DB0004C003715014013050580EFE07FCC372438
:101DC000014013050440EFE02FD402C885473ECA06
:101DD00002CC85673ECE02D091472302F10202D4A5
:101DE00002D60C0813050440EFE0AFD69145130569
:101DF0000440EFE00FE985460546814513050440A0
:101E0000EFE04FE085460946854513050440EFE0C5
:101E10006FDF85460D46894513050440EFE08FDEF0
:101E2000854611468D4513050440EFE0AFDD0546BC
:101E30009305004813050440EFE0AFD98145130531
:101E40000440EFE0AFD7854513050440EFE0CFD560
:101E5000814513050440EFE02FE845616FE08FBF37
:101E6000EFE20FBD397185452545EFE09FF98545C6
:101E700037050002EFE0DFFA854537451D00EFE04A
:101E80009FCE93070010231AF102930780043EDED1
:101E90008D4426DC4C1837140140130504C0EFE0D4
:101EA0003FBE93070020231AF102E1473EDE26DC05
:101EB0004C18130504C0EFE0BFBC02CE02D002D222
:101EC00002D402D602D8230B0100A30B01009547D0
:101ED000230CF1009147A30CF100B147FC824C08A0
:101EE0003764004013050440EFE08FE12305010053
:101EF000A305010085475C86231001002311010022
:101F000023120100231301002314010085473EC85A
:101F10000A85EFE06FEF0546894513050440EFE0C1
:101F20001F9821616FE00FB3EFE28FB09387C195E7
:101F300088C323840700A38407002147B8A78147EB
:101F400009A83387F50014231387C1953E9734B74A
:101F500085071D47E357F7FE9385C1953765004018
:101F600013050540EFE00FFD05456FE0AFAEEFE272
:101F70002FAC2A84EFF0CFFA930500082285EFF00A
:101F80002FFB7DD96FE00FAD7300203001A0EFE291
:101F90002FAA41110945EFE09FCB930720025C84F3
:101FA000A304010023050100054422C62800EFE038
:101FB0007FCA9307E0025C848947DC842305010023
:101FC00022C62800EFE01FC9930740025C84C0844A
:101FD000408522C62800EFE0FFC7930750035C84CA
:101FE000C0842305010022C62800EFE0BFC64101DE
:101FF0006FE04FA61D71A2CEA6CCCACACEC882E69B
:1020000086E48AE28EE012FE16FC1AFA1EF82AF620
:102010002EF432F236F03AEE3EEC42EA46E872E650
:1020200076E47AE27EE0370700507C2393F7F70FDF
:10203000783393F62700638D06681377F70F93774D
:102040000703930600026387D70493060003638C9B
:10205000D71A63850716B70700500947F8A37644D7
:10206000E6445649C6493660A660166186617272BA
:10207000E2725273C2733275A275127682767267FB
:10208000E2675268C268326EA26E126F826F25617B
:10209000730020301377F703930710026304F70CE3
:1020A000930730026306F70E93070002E315F7FA71
:1020B000938781839E23C207C18391E7B7070050AE
:1020C0001147A389E7029387A1839C2393F707060F
:1020D000D9F3938741839C2393F7F70F15476384C4
:1020E000E7061947E399E7F6938781839E23C207A2
:1020F000C1831307F0036365F70493878183822309
:102100004204418013890184832409002286A68524
:102110001385C185EF60B011138781831E23818FE2
:10212000C207C1831EA3A29423209900B7070050C1
:1021300082BB03C72703134747002389E70221BF58
:1021400013040004C1B7370700503C33E207E187AE
:1021500093F707F8938681829422D58F93F7F70F30
:102160003CB3D5BD370700508347670393C747008B
:10217000230BF70283476703E207E187F19B93E7AD
:10218000270093F7F70F230BF702A3860182E1B52F
:10219000370700508347E70393C74700230FF70231
:1021A0008347E703E207E187F19B93E7270093F773
:1021B000F70F230FF702A387018271BD9377F7030F
:1021C000E39B07E8B70700509E2713770704E30453
:1021D00007E89387A1839C2393F7070691C7239C65
:1021E0000182938741839C23938781839E23C20727
:1021F000C183E39207E6B70700502398070211470F
:102200002389E70289BDB707005019472389E702F0
:10221000A389E7029387C18594231387A18314A31D
:102220009433238AD182F623239CD182B623239E22
:10223000D182DE23239BF1821C2393F70706C5C7B7
:102240001C2393F70702BDCF938741839C238117FB
:102250000D476361F7088149938781839E23C207F5
:10226000C1831307F003636DF7069387818382238D
:1022700093140401C1801389018403240900268674
:10228000A2851385C185EF60807A2694232089007A
:102290009307F00F638DF91E9387A1839C23E207B8
:1022A000E18763C2073E938781839E23C207C18370
:1022B000639A0740B7070050239807021147238904
:1022C000E70251BB9387A1839C2393F7070491C72F
:1022D000814959B79309F00F41B79309F00FADBF8A
:1022E0009304000449BF938741839C2393F7F70F1E
:1022F0002D47636EF7188A071777000013070788C2
:10230000BA979C43BA9782879387C1839E23A18300
:102310000947638AE7060D476385E7080547638B2E
:10232000E70481479309F00F138781831A2342073B
:10233000418363F4E700239CF182938781839E238A
:10234000C207C1831307F0036365F70C938781838A
:10235000822393140401C18013890184032409009A
:102360002686A2851385C185EF60606C26942320A4
:10237000890039BF976700009387077B23A0F1840A
:102380009C23814955B7176700001307A77523A041
:10239000E1843C2338332207BA97C207C1838149BD
:1023A00061B79387C1839E2393F7F70F0547638730
:1023B000E70213978701618719CB09476389E70211
:1023C0000D47638FE70281479309F00FB1BF9387F1
:1023D000018123A0F1849C238149B9B7976700004C
:1023E0009387C77523A0F1849C23814935BF9767E4
:1023F00000009387A77523A0F1849C2381492DB702
:10240000976700009387077623A0F1849C23814976
:1024100021BF9304000489B79387C1839E2323843B
:10242000F1829DBD938791829C23238EF1849387B3
:1024300081839E23C207C1830547E37FF7E4854775
:10244000239CF18291BD9387C1839E23A384F18253
:1024500085472385F18289B59387A1839C23FD8BD2
:1024600085E39387C1839E2393F7F70F0547E39591
:10247000E7E21387B1821C2393F7E70F1CA329BD62
:102480009387A1839C23FD8B0947638AE700B707E5
:1024900000501D472389E702A389E7026DBE938799
:1024A000C1839E2393F7F70FFDF3938761839E23E8
:1024B00093F7F70F13071008638EE7001307300830
:1024C0006380E7020947E394E7FCB7070050A38D58
:1024D0000702D9B3B70700500947238BE7026DBB4A
:1024E000B70700500947238FE7027DB39387A18385
:1024F0009C23FD8B9DE79387C1839E2393F7F70F62
:102500000547E396E7F89767000083C7175E93F7E0
:102510000702B5DF1387B1821C2393E717001CA3C2
:10252000A5BB9387A1839C23FD8B0947E391E7F625
:102530009387C1839E2393F7F70FB1FB9387618342
:102540009E2393F7F70F130710086382E702130720
:1025500030086387E7020947E39BE7F2370700503B
:102560008347B70393E73700A30DF70235B3370767
:1025700000508347670393E73700230BF70229BB1B
:10258000370700508347E70393E73700230FF7022D
:1025900021B3238E0184938781839E23C207C18345
:1025A0000547E37BF7CE8547239CF182F5B19387FE
:1025B000C18523800700A38007009387A1839C2304
:1025C000FD8B99EB9387B1829C23858BDDCB89476B
:1025D000238EF184814911A89387A1839C23FD8BCD
:1025E00009476380E7029309F00F938781839E2355
:1025F000C207C1830947E37DF7C88947239CF1825D
:1026000041B9938761839E2393F7F70F130710084F
:10261000638CE700130730086386E7040947638487
:10262000E7029309F00FD1B7B707005083C76703DC
:102630008D8B0D476384E700814945BF8547238E15
:10264000F18481495DB7B707005083C7B7038D8B0D
:102650000D476384E700814949BF8547238EF18494
:10266000814961B7B707005083C7E7038D8B0D47DA
:102670006384E700814995BF8547238EF1848149B2
:10268000ADB781499DB7938781839E23C207C183DC
:10269000130700046365F702938781839A23420737
:1026A0004183938681839E22998FC207C1839EA214
:1026B000B70700509ABB11472389E70269BA13078D
:1026C0000004C5B7B70700501147A389E70261B2FC
:1026D00013F717000DE713F7470039CBB707005082
:1026E000DC33918B9DCF9387B182982313672700AA
:1026F00098A39C23B70700501147F8A38DB2A38479
:10270000018223840182A38501822385018237040B
:102710000050A3010400EFF0CF8B85477CA06FF041
:102720001F941387B1821C2393F7D70F1CA3D9B72B
:10273000370700507CA36FF09F92EFD27FAFAA853E
:102740003745014013050580EFF07F826FD09FB0C1
:10275000EFD21FAE411102C402C648842C000545C9
:10276000EFF08FFC13054006EFD03FB641016FD06C
:102770007FAE1D71A2CE82E686E48AE28EE012FE72
:1027800016FC1AFA1EF82AF62EF432F236F03AEE59
:102790003EEC42EA46E872E676E47AE27EE09305B1
:1027A00050523745014013050580EFE05FF90DE910
:1027B00076443660A660166186617272E272527368
:1027C000C2733275A275127682767267E2675268BA
:1027D000C268326EA26E126F826F25617300203064
:1027E000930550523744014013050480EFE05FF930
:1027F00013050480EFE05FF31375F50F83C7518471
:1028000005476382E70413978701618715C309476A
:10281000E390E7FA83C7418425476361F704138790
:1028200017002382E18413874198BA9788A349B798
:102830001307A00A6305E500A382018495BF8507FD
:10284000A382F184B5B71307B00A6305E500A3823C
:102850000184B9BF8507A382F18499BF23820184D3
:10286000A38201849387419898239386818498A2B8
:10287000983398B2B823B8A2B833B8B2D02313872C
:10288000C18410A3D03310B3F02330A3F03330B39E
:102890009C272383F1849C629767000007A7473732
:1028A000D3F7E70827A8F18418639767000087A685
:1028B00067365377D70027AAE184D30600F0D39771
:1028C000D7A099EB9767000087A60735D397F6A0A6
:1028D00099C727A8D18421A09387018594E397679E
:1028E000000087A7A733D317F7A081CB27AAF184CD
:1028F00087A7418527A4F11E65BDD30700F0D397B4
:10290000E7A0FDD7938741859CE3DDB75971A2D637
:1029100082EE86EC8AEA8EE892E696E49AE29EE0FF
:102920002AFE2EFC32FA36F83AF63EF442F246F02F
:1029300072EE76EC7AEA7EE897E7FF1F938787943A
:1029400087A707681384C19E1CE087A707655CE022
:1029500087A747651CE487A787655CE487A7C770DE
:102960001CE887A707735CE887A7876D1CEC232EFC
:1029700004003765004013050540EFD0DFF1D37741
:1029800015D0538507E01CF09385419C032E04006D
:1029900003234400832884000328C40010485448BB
:1029A000184C5C4C23A0C50123A2650023A415018B
:1029B00023A6050190C9D4C998CDDCCD88D1930751
:1029C00000F82383F5029307F007A383F5028146FD
:1029D000130680020D45EFE09FEB9145372501403E
:1029E00013050540EFD0FFAD29C5B73701409387E8
:1029F00007C083D70704C207C18305476383E7067F
:102A0000B7370140938707C083D70704C207C18344
:102A100053F707D09767000087A7871ED327F7A033
:102A20006391074891453725014013050540EFD0D4
:102A30003FAA36547660E6605661C6613662A66289
:102A4000166386637275E2755276C2763277A27724
:102A500012788278726EE26E526FC26F6561730097
:102A60002030B737014005671307E7B32390E7C469
:102A7000B727014083A5074403A6474483A687449C
:102A8000C206C18242064182C205C18117D5FF1F1D
:102A90001305457FEF00F07097D7FF1F9387877E60
:102AA00007A7076587A7476507A68765D3F6C70009
:102AB000176700008725C712D3F6B6105377D708DB
:102AC00017670000872607125377D710D3F7C70878
:102AD0001767000007264711D3F7C710D3F7D710A1
:102AE00027ACE76627AEF76683A74768154763609C
:102AF000F7208A07176700001307470BBA979C4314
:102B0000BA97828717D5FF1F1305C577EF1080414D
:102B1000F9AA17D5FF1F1305E576EF10F07FC1AABC
:102B200017D5FF1F13050576EF00B076C9A293876E
:102B300081858C4317D5FF1F1305C574EF1020172F
:102B40007DA2938781858C4317D5FF1F130585735D
:102B5000EF10006769AA97E7FF1F9387A77283A703
:102B60000782D1C70547639BE700938781858C4324
:102B700017D5FF1F13050571EF1050691386011A51
:102B8000938781858C4317D5FF1F1305A56FEF1021
:102B9000302397D7FF1F9387E76E07A7077987A78B
:102BA0004779D30600F0D387F6A0C9C3D387E6A040
:102BB000A9CF9767000087A66703D3F6D710D3176E
:102BC000D7A0A1C3894723AAF11A97D7FF1F9387DC
:102BD000676B83A7477A1947636BF70E8A071767F6
:102BE0000000130727FEBA979C43BA978287938702
:102BF00081858C4317D5FF1F1305C568EF10504D15
:102C0000B5BF854723AAF11AC9B79767000087A601
:102C100027FED3F6D710D317D7A089C78D4723AA8D
:102C2000F11A65B7894723AAF11A45B7D30600F010
:102C3000D387E6A095C39767000087A667FBD3F606
:102C4000D710D317D7A089C7954723AAF11AB5BFC4
:102C5000994723AAF11A95BF9767000087A607F93D
:102C6000D3F6D710D317D7A089C7914723AAF11A53
:102C7000A9BF954723AAF11A89BF9767000087A6C5
:102C8000E7F6D3F6D7105377D7089767000087A6E3
:102C900067F6D3F7D7109767000087A6E7F5D3F656
:102CA000E608D3F6F6089767000007A667F3D3F6A1
:102CB000C61097D7FF1F9387E75C27ACD778537769
:102CC000D70027AEE778D3F7E70027A0F77A97D7A2
:102CD000FF1F9387275B87A7877927AEF76487A7AE
:102CE000C77927A0F76687A7077A27A2F76617D5BF
:102CF000FF1F13052559EF00503C2DB397670000C7
:102D000087A6C7EED3F7D710D376F700D3F7E70837
:102D10009767000007A747EE5377D7085377F70860
:102D20009767000007A6C7EB5377C71097D7FF1F19
:102D30009387475527AEE778D3F7E70027ACF778B6
:102D4000D3F7F60027A0F77A59B79767000087A650
:102D500067EAD3F6D7105317E7209767000007A656
:102D6000E7E8D3F7C710D377F7089767000007A7FE
:102D7000A7E85377D7085377F7089767000007A6A7
:102D800027E65377C71097D7FF1F9387A74F27AE24
:102D9000E77853F7E60027A0E77AD3F7E70027ACF8
:102DA000F77835B79767000087A647E4D3F6D710C2
:102DB00053F7E6089767000087A647E4D3F7D710D4
:102DC0009767000087A647E3D3F6E608D3F6F60830
:102DD0009767000007A6C7E0D3F6C61097D7FF1F76
:102DE0009387474A27A0D77AD3F7D70027AEF7783B
:102DF0005377F70027ACE778D9BDD316E72097675C
:102E0000000007A6A7DED3F7C710D3F6F608D377DE
:102E1000F7089767000007A727DE5377D70853778F
:102E2000F7089767000007A6A7DB5377C71097D767
:102E3000FF1F9387274527A0E77A53F7E60027ACC3
:102E4000E778D3F7E70027AEF77851B5976700002A
:102E500087A6C7DAD3F6D7109767000007A607D969
:102E6000D3F7C710D377F7009767000007A7C7D835
:102E70005377D7085377F7089767000007A647D618
:102E80005377C71097D7FF1F9387C73F27ACE778C3
:102E9000D3F7E70027A0F77AD3F7F60027AEF77845
:102EA0003DB5B737014005472390E7C413878185B7
:102EB0001C4385071CC317D5FF1F1305A53CEF1046
:102EC000C007372701408327C743C207C1830326B2
:102ED000074497E6FF1F9386E63A2394C6820326AB
:102EE0004744130707402395C68238472396E68256
:102EF000D3F717D09767000007A7C7D0D3F7E7101D
:102F00009767000007A747D0D3F7E710976700003F
:102F100007A7C7CFD3F7E71027A8F10821B65D713F
:102F200082E686E48AE28EE012FE16FC1AFA1EF8A9
:102F30002AF62EF432F236F03AEE3EEC42EA46E859
:102F400072E676E47AE27EE08545371500401305A7
:102F50000580EFE04FFB11CD83C76184B1C3054706
:102F60006384E70485453715004013050580EFE0CD
:102F70006FFA3660A660166186617272E2725273F1
:102F8000C2733275A275127682767267E2675268F2
:102F9000C268326EA26E126F826F61617300203060
:102FA0000145EFF0EFFA7DBF0545EFF06FFA5DBF29
:102FB0001D71A2CE82E686E48AE28EE012FE16FC45
:102FC0001AFA1EF82AF62EF432F236F03AEE3EECF9
:102FD00042EA46E872E676E47AE27EE089453765C1
:102FE000004013050540EFD0FF8C21E1894537658E
:102FF000004013050540EFD09F9C76443660A660E4
:10300000166186617272E2725273C2733275A27572
:10301000127682767267E2675268C268326EA26E7A
:10302000126F826F2561730020301384019722860E
:1030300081453765004013050540EFD02FFD18404E
:103040009147E315F7FA5C24D3F717D03C3499E3A2
:10305000D397F72027A4F11C51BF85476303F500E0
:103060008280C167FD17E39DF5FE97D7FF1F938709
:103070006721238407003947D8C71767000007274F
:10308000A7BB98EB17670000072647BBD0EB23AC24
:10309000070023AE070017670000872767BA9CF375
:1030A00023A2070298F7176700008727A7B9DCF764
:1030B00017670000872647B994FB1767000087252C
:1030C000E7B8CCFB17670000872787B89CFF176716
:1030D0000000872727B8DCFFB8E3F8E32384070460
:1030E000F8E717670000872727B1BCEB8546238ADE
:1030F000D704A38A0704176700000725E7B5A8EFE0
:1031000017670000072587B5E8EF17670000072558
:1031100027B5A8F3176700000725C7B4E8F323A471
:10312000070617670000072527B4E8F717670000B0
:103130000725C7B3A8FB17670000072567B3E8FB9F
:10314000ACFF23AE070623A007081307803E23A287
:10315000E70823A4070823860708A386070805476E
:1031600023A8E708238AE708A38AD708238B070840
:10317000A38B070823AC0708238E0762A38E076280
:1031800027A0D76427A2F76427A4F76423860764DF
:1031900023A8076423AA076423AC076423AE07644B
:1031A00023A0076623A2076623A4076627A6F7665F
:1031B00023A8076627AAD76623AC076623AE07664F
:1031C0009766000087A606AB27A0D76823A20768EA
:1031D00023A4076823A6076823A80768976600004A
:1031E00087A686A927AAD76823AC07689766000038
:1031F00087A6069F27AED76823A0076A23A2076A7F
:1032000023A4076A23A6076A23A8076A23AA076AD2
:1032100023AC076A23AE076A23A0076C23A2076CBE
:103220009766000087A686A527A4D76C976600003E
:1032300087A606A527A6D76C23A8076C23AA076C28
:1032400023AC076C23AE076C23A0076E23A2076E86
:103250002384076E27A6F76E9766000087A686A2CE
:1032600027A8D76E27AAF76E23AC076E27AEE76EA6
:1032700023A0077023A207709766000007A7C6A0C7
:1032800027A4E77023A6077023A8077027AAC77092
:10329000238C077023AE077027A0E77223A2077262
:1032A00023A4077223A6077223A80772976600005B
:1032B00007A7C69D27AAE77223AC077223AE077241
:1032C00027A0F77423A8077423AA077423AC0774F4
:1032D00023AE077423A0077623A2077623A40776DC
:1032E00023A607769766000087A7869A27ACF7760D
:1032F0009766000087A7069A27AEF77697660000C4
:1033000087A7869927AAF77A23AC077A97660000E1
:1033100087A7C69827AEF77A9766000087A74698D2
:1033200027A0F77C23A2077C23A4077C23A6077C85
:103330009766000087A7069727A8F77C23AA077C33
:1033400023AC077C9766000087A7069627AEF77C1C
:1033500023A2077E9766000087A7469527A4F77EDD
:1033600023A6077E23A8077E9766000087A74694BA
:1033700027AAF77E23AC077E97E7FF1F938787F086
:1033800023820780A382078023830780A38307808B
:1033900023840780A38407809D462385D78023A0AC
:1033A000E78223A207826DB9EFC29FE8370600408B
:1033B00013060640B7350140938505C017D5FF1F9A
:1033C000130545EC2D2C17D5FF1F1305A5EB9767AB
:1033D000000087A7278E272EF57A9767000087A71A
:1033E000A78D2720F57C9767000087A727865CF9C3
:1033F0009767000007A747802724E57A3CFD976779
:10340000000087A7A7872724F56C9767000087A788
:1034100027872726F56C9767000087A7278A272A22
:10342000F572232C057A9767000087A76789272EF6
:10343000F57C9D2121A00545EFC03FE907A70109C3
:103440009767000087A70780D317F7A0EDF731A093
:1034500023AA01080545EFC05FE797D7FF1F9387B1
:1034600067C194431547E367D7FE93972600175724
:1034700000001307E77ABA979C43BA97828717D45C
:10348000FF1F130424E089472322F4681305C05D5D
:10349000EFC0BFE32285EF00407E9767000087A75B
:1034A00067822726F4709767000087A7E78127289F
:1034B000F47285472328F4082285EF10603F954772
:1034C00017D7FF1F2328F7BA71B717D4FF1F1304AC
:1034D00064DB8D472322F4681305C05DEFC0FFDE77
:1034E0002285EF0030202285EF10803C914717D7CE
:1034F000FF1F2321F7B8B9BF97D7FF1F938787D83E
:10350000114723A2E76883C77709A5CB97D7FF1F89
:1035100083C7B7E095E787A7C10B530700F05317A0
:10352000F7A011CB17D7FF1F1307C7D583260709AD
:103530000547638EE606530700F05397E7A039EF7F
:1035400099EB17D7FF1F1307E7D383270709B307A3
:10355000F0402328F70897D7FF1F9387A7D223AC03
:10356000076823AE07681305800CEFC01FD6954788
:1035700017D7FF1F2320F7B0F1BD97D7FF1F938701
:1035800067D023AC0768175700008727E76B27AE83
:10359000F7681305007DEFC05FD38DBF17D7FF1FFE
:1035A000130747CE832607097D57E39BE6F8854737
:1035B00017D7FF1FA303F7D679BF97D7FF1F9387AE
:1035C00067CC054723A8E122154723A2E76887A710
:1035D000877D175700000727A760D3F7E70027ACC0
:1035E000F77C1305401FEFC05FCEADB5EFC25FC4DF
:1035F000C165FD150545EFF05FA66FC0BFC50CC1E5
:1036000050C123040500B9475CC59757000087A740
:10361000A7621CE99757000007A6476250E9232CD0
:103620000500232E05009757000007A7676118F1D2
:10363000232205021CF59757000007A7A76058F53D
:103640009757000007A7476018F99757000007A78A
:10365000276058F918FD9757000007A7A75F58FD86
:103660003CE17CE1230405047CE59757000007A7B3
:10367000A75838E98547230AF504A30A0504975794
:10368000000087A6675D34ED9757000087A6075DA9
:1036900074ED9757000087A6A75C34F19757000098
:1036A00087A6475C74F1232405069757000087A678
:1036B000A75B74F59757000087A6475B34F99757C7
:1036C000000087A6E75A74F99757000087A60758A5
:1036D00034FD232E05062320050885672322F508DF
:1036E0002324050823060508A30605088547232883
:1036F000F508230A0508A30AF508230B0508A30B00
:103700000508232205682324056823260568232845
:1037100005689757000087A62756272AD568232CC7
:1037200005689757000087A6A74B272ED56823204A
:10373000056A2326056A2328056A232A056A232C9D
:10374000056A232E056A2320056C2322056C9757F2
:10375000000087A6A7522724D56C9757000087A69C
:1037600027522726D56C2328056C232A056C232C89
:10377000056C232E056C2320056E272AE56E232C6D
:10378000056E272EF56E2720E570232205709757CA
:10379000000087A6674F2724D57023260570272AA7
:1037A000C570230C0570232E05702720D5722322A7
:1037B0000572232405722326057223280572975764
:1037C000000087A6675B272AD572232C0572232E5B
:1037D00005722720E57423280574232A0574232CF9
:1037E0000574232E057423200576232205762324D1
:1037F000057623260576872605689757000007A6D5
:10380000673ED3F6C610272CD5765377D718272EC8
:10381000E5769757000007A76756272AE57A232CF5
:10382000057A9757000007A7A755272EE57A9757DF
:10383000000007A727552720E57C2322057C2324A9
:10384000057C9757000007A727452728E57C232CF0
:10385000057C272EF57C2320057E9757000087A73F
:10386000A7522724F57E2326057E2328057E975719
:10387000000087A72744272AF57E232C057E2328CE
:1038800005702322057E2304056E9757000087A745
:10389000E74F2720F5688280EFC29F99854537253D
:1038A000014013050540EFC07FB493050020371594
:1038B0000140EFD0CFAA6FC0FF998727C565975702
:1038C000000007A76733D317F7A099C3D307E720F2
:1038D000530700F0D397E7A0C5EF272EF56407271D
:1038E00005669757000087A62731D397E6A099C3AE
:1038F0005387D620D30600F0D317D7A0C9EF2720CF
:10390000E566072745669757000087A6E72ED397F9
:10391000E6A099C35387D620D30600F0D317D7A0CB
:10392000B5EF2722E5669757000087A5E742D3F752
:10393000B7109757000007A66742D3F7C7189757E5
:10394000000087A6E729D3F7D710D39717C01841EF
:10395000C207C1835EBB072705665377B71053774D
:10396000C7185377D710531717C01C41420741831C
:103970009ABF87274566D3F7B710D3F7C718D3F791
:10398000D710D39717C01841C207C1835EBF82808A
:10399000D307E72099B75387D62095B75387D6200A
:1039A00049B7872705689757000007A7A723D3F7CC
:1039B000E710272CF5769757000007A7E723D37762
:1039C000F718272EF5760727857A5317E72005671E
:1039D0002A97835787829D8DD3F705D0975700008C
:1039E00007A54722D3F7A7109757000087A5C7352B
:1039F000D3F7B7109757000007A60724D3F7C718C7
:103A00009757000087A68734D3F7D718D377F710D6
:103A10002728F5648357A7821D8ED37706D0D3F766
:103A2000A710D3F7B710D3F7C718D3F7D718D377A2
:103A3000F710272AF5648357C7829D8ED3F706D0E7
:103A4000D3F7A710D3F7B710D3F7C718D3F7D71802
:103A5000D377F710272CF564872705780727057596
:103A6000D3F7E71007274578872645755377D71092
:103A7000D3F7E7009757000007A7872DD3F7E71084
:103A80009757000007A7072DD3F7E71827A0F112D3
:103A9000828087278567272CF56E9757000087A6B9
:103AA000A71A2720D570872705689757000007A712
:103AB000671353F7E7109757000087A7E713D3F76B
:103AC000E718D3F7D7102724F5701307C5655307F8
:103AD00000F0D307F7A08DCBD397E7A095C3894714
:103AE0002322F57A8327457A994663E4F6068A0706
:103AF000975600009386861DB6979C43B69782879B
:103B000085472322F57AF9BF530700F0D397E7A042
:103B100089C78D472322F57AF1B789472322F57AA1
:103B2000D1B79757000007A7270D5377F708975786
:103B3000000087A6E70A5377D710272CE578D3F73C
:103B4000E700272EF578530700F0D3F7E70027208A
:103B5000F57A87278579272EF5648727C5795CE371
:103B60008727057A1CE78280530700F0D3F6E70029
:103B7000D377F7089757000007A707085377D708A8
:103B80005377F7089757000007A687055377C710A4
:103B9000272EE578D3F7E700272CF578D3F7F60042
:103BA0002720F57A7DB7D397F7209757000007A70E
:103BB000A7045377F7089757000087A66702537743
:103BC000D710272EE578D30600F05377D7002720AB
:103BD000E57AD3F7E700272CF578A5BFD30600F0E8
:103BE000D3F7F6089757000007A707015377F708A0
:103BF0005377D7009757000087A687FE5377D710D3
:103C00002720E57A272EE578D3F7E700272CF578EB
:103C100089B7D396F7209757000007A7E7FD53779A
:103C2000D7085377F7089757000007A667FB537725
:103C3000C7102720E57A53F7E600272CE578D3F75D
:103C4000E700272EF57831B7530700F0D3F7E700E8
:103C50009757000007A747FA5377F70897570000D0
:103C600087A607F85377D710272CE578D3F7E70016
:103C70002720F57A272EF578E9BD872705700727D5
:103C8000856FD3F7E718530700F0D397E7A089EFC4
:103C90002726F5705C4123920702232C056A232016
:103CA000056A2326056A8280D397F720D5B70727B0
:103CB000856783478571C5C787274571D30600F09F
:103CC000D387F6A0C1CB9757000087A7E7F2D39719
:103CD000F72087260572D376D708D3F7D710872623
:103CE0004572D3F7F6002722F5722720E5722326C6
:103CF000B57287274571D397F720272AF5700727D4
:103D000005689757000087A6E7EDD376D710975739
:103D1000000007A767EE5377D718D3F7E71013070C
:103D2000C565530700F0D307F7A0A1C7D397E7A055
:103D30008DCF89472322F57A8327457A994663EF09
:103D4000F6068A0797560000938606FAB6979C43B4
:103D5000B69782879757000087A787008DBF2324D7
:103D6000B5728547230CF57049B785472322F57A4C
:103D7000E1B7530700F0D397E7A089C78D47232207
:103D8000F57A5DBF89472322F57A7DB79757000002
:103D900007A787E65377F7089757000087A647E4F9
:103DA0005377D710272CE578D3F7E700272EF5783F
:103DB000530700F0D3F7E7002720F57A87278579A6
:103DC000272EF5648727C5795CE38727057A1CE7EA
:103DD0008280530700F0D3F6E700D377F7089757B0
:103DE000000007A767E15377D7085377F70897577D
:103DF000000007A6E7DE5377C710272EE578D3F734
:103E0000E700272CF578D3F7F6002720F57A7DB761
:103E1000D397F7209757000007A707DE5377F708D7
:103E20009757000087A6C7DB5377D710272EE57872
:103E3000D30600F05377D7002720E57AD3F7E700C1
:103E4000272CF578A5BFD30600F0D3F7F6089757CF
:103E5000000007A767DA5377F7085377D70097571B
:103E6000000087A6E7D75377D7102720E57A272EBB
:103E7000E578D3F7E700272CF57889B7D396F720B4
:103E80009757000007A747D75377D7085377F70806
:103E90009757000007A6C7D45377C7102720E57AA5
:103EA00053F7E600272CE578D3F7E700272EF578BF
:103EB00031B7530700F0D3F7E7009757000007A783
:103EC000A7D35377F7089757000087A667D1537792
:103ED000D710272CE578D3F7E7002720F57A272E8F
:103EE000F578E9BD8327C57203278572998FD3F7CB
:103EF00017D09757000007A7A7E4D3F7E7100727C5
:103F0000457187264572D3F7F618D377F71853070C
:103F100000F0D397E7A081E72728F5728280D39736
:103F2000F720DDBF9757000087A787CB272EF564C2
:103F30002720F5662722F5668280EFC2CFAD797122
:103F400022F626F44AF24EF052EE56EC5AEA5EE8B9
:103F500062E62A848327C56881EF5C4183D94702E2
:103F6000C20993D909418317056BB389F94011A0A0
:103F700081490329046B4E992328246B8324446BC5
:103F8000CE94032A4408B3E4440363CD040E232AE9
:103F9000946A872A846B072B046C9757000007AC40
:103FA00027DA53748B118729C46BD37B3401537484
:103FB000540153857B21EF00B073D31705C033093B
:103FC000F940D37909D053058420EF007072D317DC
:103FD00005C0B387F44053F907D0D3740AD05375A2
:103FE0009918EF00107C53F5A4105379A90887277E
:103FF000446C5377F9089757000087A667C6537734
:10400000D710D3F7E7002722F46C0725846C53758B
:104010008511D3793511D3F93B01272E346B5375B4
:1040200025115374A40053759418EF00907753F53D
:10403000A4105375A408D30700F0D317F5A0A9E77F
:10404000272CA46A8727C46C9757000007A747CF7F
:1040500053F7E7105379271153792B012720246D4B
:10406000530700F0D317E9A09DE39757000007A777
:1040700067CFD3F7E710D317F9A089CF2320046CBB
:10408000054911A8D29421B75375950055BF53190E
:104090002921E1BF0149D3F999182728346D072A4E
:1040A000046C53799A18272A246D8729846D5375D7
:1040B00055095374951853058420EF00906E53757D
:1040C000A40853F5A900272CA46C631509008347A5
:1040D0005409D1EB9757000087A787B0272EF46CBF
:1040E0000725C46D53F404D05374A400444493973B
:1040F000140053F507D09757000087A7E7B753750B
:10410000F5109757000087A727AFD3F49718D374FB
:104110009510537494109757000087A4E7C4537503
:104120009418EF001068537595105374A4088327F2
:10413000040953F507D0537485102720846AD37778
:10414000991053F704D0D3F7E7102726F46A327496
:10415000A27412798279726AE26A526BC26B326C13
:1041600045616FC08F8E63553001232E046C8DBF67
:1041700063C109049757000087A787BC537AFA10D8
:104180008727C46D537AFA00272E446D9757000095
:1041900087A787A6D39747A199C3272EF46C8727B3
:1041A000C46D530700F0D397E7A09DDB272EE46C86
:1041B00005BF9757000087A727A4272EF46C0DB7DB
:1041C000EFC20F87011122EE26EC4AEA4EE852E6D2
:1041D0002A8493F7F50F0347056E998F93F4F70F31
:1041E0002320B56E0724C57787248569D37494107E
:1041F000272095788727C5695374F410272285787E
:104200009757000087A707B4272AF56883477509E1
:1042100063980710072A056953054A21EF00B04546
:10422000D309A52053F9A41053054A21EF00B06427
:10423000D377A4105379F9082724247953743411BF
:10424000D3F4A41053749400272684788327040998
:104250000547638DE7067D57638FE7080724446EA3
:104260009757000087A447B053759418EF00705318
:10427000537595105374A40827288468872684787A
:104280008727C4781307C465530700F0D307F7A046
:10429000F5CBD307D7A0F1C79757000007A707951D
:1042A00053F7E710D397E6A0CDCB89472322F47AC2
:1042B0008327447A994663E4F6168A0797560000E6
:1042C000938646A4B6979C43B6978287D3F704D0CB
:1042D00017570000072707A7D3F7E7101757000065
:1042E000072707A6D3F7E7100727446ED377F70011
:1042F0002722F46E8DB7D3F704D09757000007A795
:1043000067A4D3F7E7109757000007A767A3D3F771
:10431000E7100727446ED377F7002722F46E3DBFDE
:10432000072A056A53054A21EF00F034D309A52076
:1043300053F9A41053054A21EF00F053D377A4108A
:104340005379F9082724247953743411D3F4A41031
:10435000537494002726847815B785472322F47A6E
:1043600081BF9757000007A7A78853F7E710D39797
:10437000E6A089C78D472322F47A1DBF89472322EF
:10438000F47A3DB7530700F0D307D7A095C39757EA
:10439000000007A7E78553F7E710D397E6A089C782
:1043A00095472322F47A29B799472322F47A09B74B
:1043B0009757000007A7878353F7E710D397E6A026
:1043C00089C791472322F47AE5B595472322F47AE9
:1043D000C5B59757000007A7678153F7E710D3F6D5
:1043E000E6089757000007A7E780D3F7E71097572D
:1043F000000007A767805377D7085377F7089747D8
:10440000000007A6E77D5377C710272CE478D3F682
:10441000E600272ED478D3F7D7002720F47A872711
:104420008479272EF4648727C4795CE38727047A8C
:104430001CE77264E2645269C269326A05616FB056
:104440007FE19747000007A7677AD3F7E71053F695
:10445000F600D3F7D7089747000007A7E779537707
:10446000C7085377F7089747000087A66777537701
:10447000D710272EE478D3F7E700272CF478D377EA
:10448000F6002720F47A61BF9747000007A68776D9
:1044900053F6C710D396D6209747000007A7077595
:1044A000D3F7E710D3F7F6089747000007A7C774BC
:1044B0005377C7085377F7089747000087A64772D6
:1044C0005377D710272EE4785377E6002720E47A35
:1044D000D3F7E700272CF47899B79747000007A790
:1044E000E77053F7E710D376D7089747000007A780
:1044F000E770D3F7E7109747000007A7E76F5377F8
:10450000D7085377F7089747000007A6676D5377DA
:10451000C7102720E47AD3F7E700272EF478D3F6E4
:10452000F600272CD478E5BD5397D6209747000096
:1045300007A6C76BD3F7C7105376F708D3F7F6086B
:104540009747000007A7476B5377C7085377F708CB
:104550009747000087A6C7685377D7102720E47ACB
:104560005377E600272CE478D3F7E700272EF4787A
:104570007DB59747000007A6676853F6C7109747B1
:10458000000007A7A766D3F7E710D3F7F600974711
:10459000000007A767665377C7085377F708974760
:1045A000000087A6E7635377D710272CE47853F7EA
:1045B000E7002720E47A5377E600272EE47885B5D4
:1045C000EFB21FC7011122EE26EC4AEA4EE852E68E
:1045D00056E42A84AE8432890727057F832705099C
:1045E000D3F707D0D3F7E710232805660727457FC1
:1045F000D3F7E718272AF566072545735375A510E5
:10460000D30700F0D307F5A0A1CF530500F087270B
:104610004467D317F5A0A1CF272AA4668347440592
:10462000B9CF0727C46A87240473537797100724E8
:10463000446753758710D30400F053F5A408072985
:10464000046753772711537797008724C4705379F1
:1046500099105379A900D3749410D3F4E40025A0E1
:10466000EF303075EF00B028EF4020034DB7531501
:10467000A520D397A7A0DDD3272AA46645B7D304E6
:1046800000F053899420834754058DC38727C46A5B
:104690009747000007A70755D3F7E7109747000093
:1046A00007A7C76CD3F7E710D3F4F40027242467D7
:1046B00027269466872984670724C467072A046A23
:1046C0008727C46A8327C476B387F44053F717D08B
:1046D000D3F7E7109747000007A78766D3F7E710DF
:1046E000537AFA0053054A21EF00E078D30AA52057
:1046F00053054A21EF003018D3F759115377A4100E
:10470000D3F7E7002728F47653745411D3F9A9108E
:1047100053743409272A847687260475072604747F
:10472000D3F7D708D377F610D3F7F6002728F47419
:10473000072744755374E408537486105377870031
:10474000272AE47487260467D3F6F6082726D47A46
:10475000072444675374E4082728847A0727C4771A
:104760008727847553F5270187278473D3F6F610BE
:104770005375D5005375A7102720A4788726C475D4
:10478000D3F496005374F41053F48400D377871055
:104790002722F4785375A510D3F7F7105375F50059
:1047A000EF0070209747000087A7875C53F5A71894
:1047B0009747000087A74744D317F5A0CDEF0727F9
:1047C000C47A8727C4739747000087A66757D3F733
:1047D000D7105377F7108726847553F7E600272CF8
:1047E000E4740727047BD3F7E7100727C475D37752
:1047F000F700272EF4740724046A0727C46A832766
:10480000C476B387F440D3F707D09747000087A654
:104810002753D3F7D710D377F7105374F400530509
:104820008420912DD304A52053058420EF00B004EB
:10483000072704785377971087264478D3F6A61075
:104840005377D7082720E90087274478D3F79710B4
:10485000072704785377A710D3F7E7002722F9003A
:10486000232694767264E2645269C269326AA26A4B
:1048700005616FB03F9E87270478D3F7A7102720E4
:10488000F4788727447853F5A7102722A4780727C0
:1048900084759747000087A6E74D5377D710272CDC
:1048A000E4748727C475D3F7D710272EF474A1B703
:1048B0005879872605735377D7108727C570D3F7A4
:1048C000D718D377F710272CE572272EF572828040
:1048D0008726857B8727457BD397D7A099C3D38627
:1048E000F720D397F720D397F6A099C3D386F72064
:1048F000272CD57A8725C57E0726857ED317B6A0B7
:1049000099C3D305C6205315C620D397A5A099C334
:10491000D305A5202726B57E8567AA9787A7478256
:10492000530700F0D3A7E7A09DEB8347C56485CB71
:104930008727056D9747000007A74740D3F7E7187B
:10494000D39707C013078016B3E7E70263CE0706C5
:10495000938747028A07AA97DC67D3F5F500872774
:10496000456DD3F6F6080727C57BD377D710D3F765
:10497000B7000727C57CD377F700D317F6A099C3F4
:10498000D307C620D397A7A099C3D307A520D327C1
:10499000F6A095EFD327F5A09DEB0726057C97475A
:1049A000000087A5E7395376B6108327457DB38786
:1049B000F540D3F517D05376B610D376D61053778B
:1049C000D7002726E57C21A89387871651B79747FC
:1049D000000087A6273A5377D7102726E57C87263D
:1049E000C57C0727057DD317D7A099C3D306E72039
:1049F0005317E720D397E6A099C3D306E7202726CD
:104A0000D57C2728F57E232AB57C82808727857B65
:104A10000725457BD317F5A099C3D307A520D31548
:104A2000A520D397B7A099C3D387B520272CF57AB3
:104A30000720C57E0726857ED31706A099C353009D
:104A4000C620D310C620D31710A099C353801020BE
:104A50002726057E8726857D0727856DD3F6E60800
:104A60002720D57E0727C57DD3F6E610D3F6F600BE
:104A7000D317D5A099E35385D620D317B5A099E3D2
:104A8000D305A5208727456DD3F5F5080727C57BF6
:104A9000D377B710D3F707000727C57CD377F70084
:104AA000D317F6A099C3D307C620D39717A099C3ED
:104AB000D3871020D327F6A09DE3D3A7F0A085E3EA
:104AC0008726057C9747000007A68727D3F6C610E0
:104AD000D3F5B6105377B7002726E57C09A897478A
:104AE000000087A527295377B7102726E57C87265E
:104AF000C57C0727057DD317D7A099C3D306E72028
:104B00005317E720D397E6A099C3D306E7202726BB
:104B1000D57C2728F57E82805C4123920702232CD6
:104B2000056A232C056C232E056A2328056C232097
:104B3000056A1307C56585472322F57A9747000064
:104B40009387471E9C43974600009386661DB69741
:104B500082879747000087A76714272CF578974727
:104B6000000087A7E722272EF5782720F57A8727E8
:104B70008579272EF5648727C5795CE38727057A31
:104B80001CE782809747000087A78705272EF578C6
:104B90009747000007A70720272CE5782720F57AFC
:104BA000F9B79747000087A7A71E272EF57827207B
:104BB000F57A9747000087A7271E272CF57845BF71
:104BC0009747000087A7C71C2720F57A272EF5787E
:104BD0009747000087A7471C272CF57849BF9747C0
:104BE000000087A7A71B2720F57A9747000007A793
:104BF000271B272CE578272EF57895BF97470000CF
:104C000087A7C709272CF5789747000087A747187B
:104C10002720F57A272EF57899BF411102C602C4E4
:104C2000371702401C43C166D58F1CC3B71702401B
:104C30009C4337070200F98F3EC4B24785073EC642
:104C4000A24789E732478567E312F7FEB7170240AC
:104C50009C431397E700635A070085473EC42247E9
:104C600085476306F7004101828002C4CDBFB717B4
:104C70000240D843D8C3D843D8C3D843D8C3D843B5
:104C8000B706C1FFFD16758FD8C3D843C166558FCF
:104C9000D8C39843B7060001558F98C3B717024091
:104CA0009C4313976700E35B07FEB7170240D843A6
:104CB000719BD8C3D84313672700D8C3B7170240E6
:104CC000DC43B18B2147E39BE7FE71BFEFB24FD6C8
:104CD000A9376FB02FD8EFB2AFD5B71702409843BE
:104CE0001367170098C3D843B706FFF8758FD8C36A
:104CF0009843B706F7FEFD16758F98C39843B7061D
:104D0000FCFFFD16758F98C3D843B70681FFFD16CB
:104D1000758FD8C39843B70600ECFD16758F98C3FE
:104D20003707FF0098C723A607024D376FB08FD211
:104D3000B7170240DC43B18B11476385E704214775
:104D40006389E70481CBB7177A009387072023A2F2
:104D5000F18039A0B7177A009387072023A2F1804A
:104D6000B7170240DC439183BD8B17B7FF1F1307B2
:104D70006729BA979423138741801C43B3D7D70080
:104D80001CC38280B7177A009387072023A2F18083
:104D9000C1BF371702405C435843C166758FC98352
:104DA000BD8B890789466382D704BD466381D704DA
:104DB000C1466381D704814645466380C70429EB19
:104DC0003747024003270780418B15CB37177A00FE
:104DD00013070720B387E70223A2F180D1D21387FC
:104DE00041801C4385831CC3A5BFC947D1B78546F5
:104DF000B547D9B78146BD47D9B7C147C9B73717F6
:104E00003D0013070790B387E70223A2F180F9B7AB
:104E10003717024058431316E700635B0600371745
:104E20003D0013070790B387E70223A2F1807DB707
:104E300037177A0013070720B387E70223A2F18010
:104E400071BFEFB2EFBE413DE535EFD04F94EFB00B
:104E50002FC1EFC07F940545EFC0DF9DEFC0FFC9B4
:104E6000EFC0BFCFEFC05FE6EFC01FF2EFC05FFF44
:104E7000EFE08FD301A0D30705E00111B716493F3A
:104E80001397170006CE938686FD058363DBE60243
:104E9000B706807F6347D7005375A508F2400561C8
:104EA00082802800BD2B0D8985476303F502894761
:104EB000B26522656309F50205C50545EF10A0112D
:104EC000F1BFD30500F0EF00D00DF2400561828004
:104ED000B26522650545EF1000105315A5207DBF72
:104EE000EF00300C65BFEF00D00B5315A5207DB748
:104EF000D30605E0594613971600058393577701AB
:104F0000938717F8B6856341F60863C4070437082A
:104F100080001307F8FF3357F7403375D700530667
:104F200005E00DC5174500008727C5E7D377F500D5
:104F3000530700F05315F7A011C963D60600B35705
:104F4000F840B385D7001346F7FF6D8E530506F082
:104F500082809747000087A7E7E4D377F5005307DF
:104F600000F0530605E0D317F7A0EDD3530607E092
:104F7000E3DE06FC530605E071DB9747000087A7D8
:104F800027DE538607E0D9B7B707807F530605E0D1
:104F9000E36EF7FAD377A500538607E0530506F0D2
:104FA000828009A0D30705E0B706008093C6F6FF0C
:104FB00033F6F60013577601130717F85945634087
:104FC000E50635C64111BE8513D6F70163440706D1
:104FD000B7068000FD16B3D6E64033F5D70005CD01
:104FE000858233F5D70009C993C6F6FFFD8EB70752
:104FF0002000B3D7E740D58F0A06138741813A9640
:105000001862D38707F0D377F7003EE6B267D3F78D
:10501000E708D38707E0538507F04101828037070F
:10502000807F6366E600D377A500D38707E05385CA
:1050300007F08280A607A5833307F0405D8F2583A4
:10504000B70740007D8FB707F0FF13182600FD8DCE
:10505000138541814295D98D1861D38705F07E066D
:10506000D377F7003EE6B267D3F7E708D38707E0C8
:10507000F58FD18F4DB7D30705E00111B716493F22
:105080001397170006CE938686FD058363DBE60241
:10509000B706807F6347D7005375A508F2400561C6
:1050A00082802800BD2E0D8985476304F50289475B
:1050B000B26522656307F5020DC1E5255315A520EC
:1050C000F1BFD30500F00145EF00F070F24005613B
:1050D0008280B2652265F125D1B70545EF00B06F3A
:1050E00075BF0545EF00306F5315A52045BF5D71B5
:1050F000A2C4A6C2CAC052DE56DC86C62A84AE84CA
:10510000B1229387818003A90700FD572A8AAE8ABE
:105110006301F9022286A6862285A685EF30A0418A
:1051200009E9014681462285A685EF204027634C88
:105130000500B64026445285D68596440649725AE3
:10514000E25A6161828085473EC497470000938799
:10515000A7C53EC602D422CC26CE22C826CA6307E3
:105160000902014681463285B685EF10B0242AD067
:105170002ED28947631EF900EF30F00A9307100220
:105180001CC1A25781EF025A925A65B702D002D2CF
:105190002800EF00706E6DD1A257F5D7EF30B00840
:1051A000A2571CC1CDB75D71A2C422FE86C65304AE
:1051B000A5201523938781808043FD57630AF4005F
:1051C000D32784A091C7D30700F0D317F4A091E7A9
:1051D000B6402644727461618280530584208547FD
:1051E0003EC4974700009387A7BC3EC602D4EF3069
:1051F000403C2ACC2ECE2AC82ECA05CC0146814678
:105200003285B685EF10101B2AD02ED28947631441
:10521000F402EF305001930710021CC1A25795E32E
:1052200002559255EF306047B64026447274616172
:10523000828002D002D22800EF00106479D9A257F0
:10524000E5D3EF30407EA2571CC1D9BF41113707CB
:10525000F07F22C426C206C63378B7002E84AA8403
:10526000630DE816AE87AA86635FB00E13DE454174
:1052700063010E1A370710001306F7FFF18FD98F5D
:10528000130E1EC01397170013761E0093D7F60156
:10529000BA971397160011C67D838607BA9713979E
:1052A0002600135E1E40D945814E814637062000F8
:1052B0003385C6001358F701FD1563C6A700898F13
:1052C000B306C500B29E8607C29706070582EDF1B8
:1052D00013050002014381483706008019A8638541
:1052E000D70E9355F70186077D15AE970607058201
:1052F0000DC9B3051601E3D4F6FEB388C5003688A0
:1053000063CE050A958FB336B700958F0D8F9355F1
:10531000F70186077D153293C286AE970607058290
:1053200069F9D98F9354130089CB93041300FD5767
:1053300085806314F300850E814413D71E40370423
:10534000E03F93FE1E003A9463850E00B70700808D
:10535000DD8C13174E012297B24022442685BA8570
:105360009244410182801397150005833368A7009A
:105370002E87E30308FED9E193D5B600AD172E873B
:10538000D606FDD913D6450141EA014611A02A8669
:1053900006079315B70013051600E3DA05FE930818
:1053A00000023688B388A840BA85B396A600335762
:1053B0001801338EC740B367B7006DBD13C8F8FF3F
:1053C0001358F80136983DBFE36DB7F0B388C500B8
:1053D000E3C605FE3E88814715BF2A86AE86EF20CC
:1053E00060072686A286EF00105CB2402244AA84A1
:1053F0002E872685BA859244410182802A86AE8610
:10540000EF20A06A2A86AE86EF10C07AAA842E8783
:10541000A1B72E87814795BF3688930800027D5635
:1054200079B7D30705E0011122CC3717493F139410
:10543000170026CA06CE4AC8130787FD0580AA842E
:105440006355870E37D71640130737BE3E8963442E
:10545000870417470000872727963717C93F4198C9
:10546000130707FD6353F022D377F508630FE40CAD
:105470009747000007A78794D3F6E7080545D3F7B9
:10548000D70894E0D3F7E708DCE0F2406244D24466
:10549000424905618280B7174943938707F863DF64
:1054A000870CB707807F635CF408135674411306BA
:1054B000A6F7931776011D8CD30704F01747000059
:1054C00087264791530600F0D39707C08D4653F7C0
:1054D00007D0D3F7E7083AE2D3F7D710D39707C03E
:1054E00053F707D0D3F7E7083AE4D3F7D710D3A799
:1054F000C7A03EE691C7D326C7A093B6160085067F
:1055000097470000938747950947A6854800D12E05
:10551000E35D09F69860DC603305A0405317E7208F
:10552000D397F72098E0DCE08DB7F240624488E042
:1055300023220500D2444249014505618280D37788
:10554000A5080145DCE09CE089B79747000007A764
:105550002787D3F7E7089747000007A7A786F240F9
:1055600062444249D3F6E7080545D3F7D70894E0EB
:10557000D3F7E708DCE0D24405618280EF00103009
:105580009737000087A7C7659747000087A6C7839E
:10559000C376D5789747000007A747829747000052
:1055A00087A78781FD47539506C0D37605D04BF575
:1055B000F650D3F7E61063C7A7049307F5FF1397D8
:1055C00027005377F508974700009387E780BA973D
:1055D0009443137704F0D30707E06309D7029CC014
:1055E000538707F05375E5085375F508C8E0E35E87
:1055F00009E8D317E7205315A5203305A0409CE008
:10560000C8E061B55377F508D30707E013D77701F2
:105610005D841377F70F3307E440A146E3D1E6FC3E
:105620009737000007A6C7794BF7C6509737000099
:1056300087A74779E5465375E5084BF5C650C7F788
:10564000F6505376F708D30706E013D777011377A0
:10565000F70F198C63C6860090E05305E72049B721
:105660009737000007A687764BF5C670973700007E
:1056700087A707765377A7084BF7C670C7F7F6706A
:105680005377F508D30707E099BFD377F500630098
:10569000E4029737000007A76772D3F6E7007D554D
:1056A000D3F7D70894E0D3F7E700DCE0F9BB9737EE
:1056B000000007A7E770D3F7E7009737000007A7B8
:1056C00067707D55D3F6E700D3F7D70894E0D3F79A
:1056D000E700DCE05DBBD30605E03707807F9397EA
:1056E0001600858363F9E708530505E0D1C3B68743
:1056F00063CD06083376D70013D7764105E21396BB
:105700008600634D0608814611A0B28686079395F0
:10571000870013861600E3DA05FE158FB7068000B2
:105720001386F6FFF18F130717F8DD8E1376170037
:105730009397160021EA13581740E5460145814525
:10574000370700013386E500FD1663C6C700B305C1
:10575000E600918F3A9586070583EDF699C3050516
:1057600079990585B707003F3E95131778013A955B
:10577000530505F08280C377A550538507E0530594
:1057800005F08280939726007DB7D377A508D3F7DD
:10579000F718538507E0530505F08280FD56158FF5
:1057A000B5BF530705E0B70600329317170085838E
:1057B00063DFD706D31705C063800712D376A51021
:1057C0009747000087A7879B9747000007A5C79AC0
:1057D0009747000007A0C79A9747000007A6879A37
:1057E00043F5A6789747000007A7079A9747000058
:1057F00087A7C79943F5A60043F5A66043F5A670B1
:10580000C3F7A678D3F7D710530707F097370000F0
:1058100007A5873ED375B7109737000007A7473C09
:10582000C7F7F658C7F7E6785375F5088280D37640
:10583000A5109746000007A666949746000007A7A4
:10584000A6939746000087A7A6939746000007A057
:10585000669343F7E6609746000007A5E6929746F1
:10586000000007A6A692B7A6993E93869699C3779D
:10587000D778C3F7D700C3F7D750C3F7D760D3F7AC
:10588000D710E3D3F6F8B706483F63CEF602B70663
:1058900000FFB697538607F09736000007A5C63578
:1058A0005375C508530707F0D375B7109737000035
:1058B00007A7073347F7E660C7F7F658D377F70827
:1058C0005375F50882809747000007A5678A9747B8
:1058D000000007A6278AF9B79737000007A5C73148
:1058E00082802171131827003ACA17470000130756
:1058F000A78D4297232C811A232A91192328A119B5
:10590000328432CE232E111A232A911A2328211BE6
:105910002326311B2324411B2322511B2320611BDF
:10592000232E7119232C81192326B119272E8116B4
:10593000272C9116272A21172728311727264117A8
:10594000272451172722611771582EC83EC22A8674
:10595000832C0700138DF6FF634A04639307D4FF7B
:1059600093D4F7419D88BE9493D73440138B17008E
:105970003EC493173B003ECCA2476245F2453387B5
:10598000AC01B387A74113081700338AA5403E989E
:10599000881863430702924513972700D30700F046
:1059A0002E9763C507001843D37707D011058507E5
:1059B000272EF5FEE39107FF939D2C0063C40C0492
:1059C00093182D009C1813854800939D2C00BE98B9
:1059D0005C0A130801113383B70132954687B287F9
:1059E000D30700F0634A0D009463186391077117A1
:1059F000C3F7E678E39AA7FE2720F800110891087C
:105A0000E31E68FC9387FCFF93898DFF13992700A1
:105A1000930A01027C08BE9DB3873A013EC68A06FE
:105A20009737000087A4077A9737000007A48721DB
:105A30009737000007A9471C9737000007AB477846
:105A40009737000087AA07399737000087A94719B9
:105A5000330CD6009C12B7060040E6891384F6FF8B
:105A60003E99939429009C12A69707A507FB635FB4
:105A7000300333858900930E01110A05769556830C
:105A800011A07285D377651114611103130EC5FF40
:105A9000D39707C0D3F707D04BF7575153F5D7002B
:105AA000D31707C0232EF3FEE39DAEFC528532C010
:105AB000E92B530AA52053759510EFF06FC34B7572
:105AC00085A00246531B05C0537A0BD0537A450973
:105AD000635F400D9387F9FF8A079812BA9703A373
